{"contracts/SilverICO.sol":{"SilverICO":{"abi":[{"inputs":[{"internalType":"address","name":"_silverDogeToken","type":"address"},{"internalType":"uint256","name":"_presaleCap","type":"uint256"},{"internalType":"uint256","name":"_presaleStartTime","type":"uint256"},{"internalType":"uint256","name":"_presaleEndTime","type":"uint256"},{"internalType":"address","name":"_owner","type":"address"}],"stateMutability":"nonpayable","type":"constructor"},{"inputs":[{"internalType":"address","name":"owner","type":"address"}],"name":"OwnableInvalidOwner","type":"error"},{"inputs":[{"internalType":"address","name":"account","type":"address"}],"name":"OwnableUnauthorizedAccount","type":"error"},{"anonymous":false,"inputs":[{"indexed":true,"internalType":"address","name":"contributor","type":"address"},{"indexed":false,"internalType":"uint256","name":"amount","type":"uint256"},{"indexed":false,"internalType":"uint256","name":"tokensPurchased","type":"uint256"}],"name":"Contribution","type":"event"},{"anonymous":false,"inputs":[{"indexed":true,"internalType":"address","name":"previousOwner","type":"address"},{"indexed":true,"internalType":"address","name":"newOwner","type":"address"}],"name":"OwnershipTransferred","type":"event"},{"inputs":[{"internalType":"address","name":"","type":"address"}],"name":"contributions","outputs":[{"internalType":"uint256","name":"","type":"uint256"}],"stateMutability":"view","type":"function"},{"inputs":[],"name":"getPresaleRaised","outputs":[{"internalType":"uint256","name":"","type":"uint256"}],"stateMutability":"view","type":"function"},{"inputs":[],"name":"owner","outputs":[{"internalType":"address","name":"","type":"address"}],"stateMutability":"view","type":"function"},{"inputs":[],"name":"participate","outputs":[],"stateMutability":"payable","type":"function"},{"inputs":[],"name":"presaleCap","outputs":[{"internalType":"uint256","name":"","type":"uint256"}],"stateMutability":"view","type":"function"},{"inputs":[],"name":"presaleEndTime","outputs":[{"internalType":"uint256","name":"","type":"uint256"}],"stateMutability":"view","type":"function"},{"inputs":[],"name":"presaleRate","outputs":[{"internalType":"uint256","name":"","type":"uint256"}],"stateMutability":"view","type":"function"},{"inputs":[],"name":"presaleStartTime","outputs":[{"internalType":"uint256","name":"","type":"uint256"}],"stateMutability":"view","type":"function"},{"inputs":[],"name":"renounceOwnership","outputs":[],"stateMutability":"nonpayable","type":"function"},{"inputs":[],"name":"silverDogeToken","outputs":[{"internalType":"address","name":"","type":"address"}],"stateMutability":"view","type":"function"},{"inputs":[{"internalType":"address","name":"newOwner","type":"address"}],"name":"transferOwnership","outputs":[],"stateMutability":"nonpayable","type":"function"},{"inputs":[],"name":"withdrawBNB","outputs":[],"stateMutability":"nonpayable","type":"function"}],"evm":{"bytecode":{"linkReferences":{},"object":"6080346100fb57601f61073f38819003918201601f19168301916001600160401b038311848410176101005780849260a0946040528339810103126100fb5761004781610116565b60208201516040830151606084015192939091906001600160a01b0390819061007290608001610116565b169081156100e2576000549560018060a01b03199280848916176000558260405198167f8be0079c531659141344cd1fd0a4f28419497f9722a3daafe3b4186f6b6457e0600080a3169060015416176001556003556004556005556402540be400600255610614908161012b8239f35b604051631e4fbdf760e01b815260006004820152602490fd5b600080fd5b634e487b7160e01b600052604160045260246000fd5b51906001600160a01b03821682036100fb5756fe60406080815260048036101561001457600080fd5b600091823560e01c80631d111d1314610540578063249b7c191461052157806342e94c90146104e757806342f39381146104c857806363d5502f146104a9578063715018a61461044c5780638308f8a7146104235780638da5cb5b146103fb57806394840713146103e0578063a82524b2146103c2578063d11711a2146101345763f2fde38b146100a457600080fd5b34610130576020366003190112610130576001600160a01b0382358181169391929084900361012c576100d56105b2565b831561011657505082546001600160a01b0319811683178455167f8be0079c531659141344cd1fd0a4f28419497f9722a3daafe3b4186f6b6457e08380a380f35b51631e4fbdf760e01b8152908101849052602490fd5b8480fd5b8280fd5b509190816003193601126103be578054421061038157600554421161034a573415610307576002549081340291348304036102f45781156102b957610179344761058f565b600354106102805792829360018060a01b03600154169082519163a9059cbb60e01b835233828401528460248401528260448160209889945af1801561027657610210575b50507f5f7675b09617d2c9fa4fd13058ee5877a9538f626b0308816736e83748a4504091338552600684526101f6348387205461058f565b33865260068552828620558151933485528401523392a280f35b84903d861161026e575b601f8201601f191683019067ffffffffffffffff82118483101761025b57508591839185528101031261012c5751801515036102575738806101be565b8380fd5b634e487b7160e01b885260419052602487fd5b3d915061021a565b83513d88823e3d90fd5b606490602085519162461bcd60e51b83528201526013602482015272141c995cd85b194818d85c081c995858da1959606a1b6044820152fd5b606490602085519162461bcd60e51b83528201526015602482015274125b9cdd59999a58da595b9d08109390881cd95b9d605a1b6044820152fd5b634e487b7160e01b835260119052602482fd5b606490602084519162461bcd60e51b8352820152601c60248201527f4d7573742073656e6420424e4220746f207061727469636970617465000000006044820152fd5b606490602084519162461bcd60e51b83528201526011602482015270141c995cd85b19481a185cc8195b991959607a1b6044820152fd5b606490602084519162461bcd60e51b83528201526017602482015276141c995cd85b19481a185cc81b9bdd081cdd185c9d1959604a1b6044820152fd5b5080fd5b50903461013057826003193601126101305760209250549051908152f35b8382346103be57816003193601126103be5751478152602090f35b8382346103be57816003193601126103be57905490516001600160a01b039091168152602090f35b8382346103be57816003193601126103be5760015490516001600160a01b039091168152602090f35b83346104a657806003193601126104a6576104656105b2565b80546001600160a01b03198116825581906001600160a01b03167f8be0079c531659141344cd1fd0a4f28419497f9722a3daafe3b4186f6b6457e08280a380f35b80fd5b8382346103be57816003193601126103be576020906003549051908152f35b8382346103be57816003193601126103be576020906002549051908152f35b50903461013057602036600319011261013057356001600160a01b0381169081900361013057828291602094526006845220549051908152f35b8382346103be57816003193601126103be576020906005549051908152f35b8382346103be57816003193601126103be5761055a6105b2565b8180808060018060a01b038154164790828215610586575bf11561057c575080f35b51903d90823e3d90fd5b506108fc610572565b9190820180921161059c57565b634e487b7160e01b600052601160045260246000fd5b6000546001600160a01b031633036105c657565b60405163118cdaa760e01b8152336004820152602490fdfea2646970667358221220f211d24754417aea981f5d69ac48c00c2e02ec23554a346f636c02026027099564736f6c63430008180033","opcodes":"PUSH1 0x80 CALLVALUE PUSH2 0xFB JUMPI PUSH1 0x1F PUSH2 0x73F CODESIZE DUP2 SWAP1 SUB SWAP2 DUP3 ADD PUSH1 0x1F NOT AND DUP4 ADD SWAP2 PUSH1 0x1 PUSH1 0x1 PUSH1 0x40 SHL SUB DUP4 GT DUP5 DUP5 LT OR PUSH2 0x100 JUMPI DUP1 DUP5 SWAP3 PUSH1 0xA0 SWAP5 PUSH1 0x40 MSTORE DUP4 CODECOPY DUP2 ADD SUB SLT PUSH2 0xFB JUMPI PUSH2 0x47 DUP2 PUSH2 0x116 JUMP JUMPDEST PUSH1 0x20 DUP3 ADD MLOAD PUSH1 0x40 DUP4 ADD MLOAD PUSH1 0x60 DUP5 ADD MLOAD SWAP3 SWAP4 SWAP1 SWAP2 SWAP1 PUSH1 0x1 PUSH1 0x1 PUSH1 0xA0 SHL SUB SWAP1 DUP2 SWAP1 PUSH2 0x72 SWAP1 PUSH1 0x80 ADD PUSH2 0x116 JUMP JUMPDEST AND SWAP1 DUP2 ISZERO PUSH2 0xE2 JUMPI PUSH1 0x0 SLOAD SWAP6 PUSH1 0x1 DUP1 PUSH1 0xA0 SHL SUB NOT SWAP3 DUP1 DUP5 DUP10 AND OR PUSH1 0x0 SSTORE DUP3 PUSH1 0x40 MLOAD SWAP9 AND PUSH32 0x8BE0079C531659141344CD1FD0A4F28419497F9722A3DAAFE3B4186F6B6457E0 PUSH1 0x0 DUP1 LOG3 AND SWAP1 PUSH1 0x1 SLOAD AND OR PUSH1 0x1 SSTORE PUSH1 0x3 SSTORE PUSH1 0x4 SSTORE PUSH1 0x5 SSTORE PUSH5 0x2540BE400 PUSH1 0x2 SSTORE PUSH2 0x614 SWAP1 DUP2 PUSH2 0x12B DUP3 CODECOPY RETURN JUMPDEST PUSH1 0x40 MLOAD PUSH4 0x1E4FBDF7 PUSH1 0xE0 SHL DUP2 MSTORE PUSH1 0x0 PUSH1 0x4 DUP3 ADD MSTORE PUSH1 0x24 SWAP1 REVERT JUMPDEST PUSH1 0x0 DUP1 REVERT JUMPDEST PUSH4 0x4E487B71 PUSH1 0xE0 SHL PUSH1 0x0 MSTORE PUSH1 0x41 PUSH1 0x4 MSTORE PUSH1 0x24 PUSH1 0x0 REVERT JUMPDEST MLOAD SWAP1 PUSH1 0x1 PUSH1 0x1 PUSH1 0xA0 SHL SUB DUP3 AND DUP3 SUB PUSH2 0xFB JUMPI JUMP INVALID PUSH1 0x40 PUSH1 0x80 DUP2 MSTORE PUSH1 0x4 DUP1 CALLDATASIZE LT ISZERO PUSH2 0x14 JUMPI PUSH1 0x0 DUP1 REVERT JUMPDEST PUSH1 0x0 SWAP2 DUP3 CALLDATALOAD PUSH1 0xE0 SHR DUP1 PUSH4 0x1D111D13 EQ PUSH2 0x540 JUMPI DUP1 PUSH4 0x249B7C19 EQ PUSH2 0x521 JUMPI DUP1 PUSH4 0x42E94C90 EQ PUSH2 0x4E7 JUMPI DUP1 PUSH4 0x42F39381 EQ PUSH2 0x4C8 JUMPI DUP1 PUSH4 0x63D5502F EQ PUSH2 0x4A9 JUMPI DUP1 PUSH4 0x715018A6 EQ PUSH2 0x44C JUMPI DUP1 PUSH4 0x8308F8A7 EQ PUSH2 0x423 JUMPI DUP1 PUSH4 0x8DA5CB5B EQ PUSH2 0x3FB JUMPI DUP1 PUSH4 0x94840713 EQ PUSH2 0x3E0 JUMPI DUP1 PUSH4 0xA82524B2 EQ PUSH2 0x3C2 JUMPI DUP1 PUSH4 0xD11711A2 EQ PUSH2 0x134 JUMPI PUSH4 0xF2FDE38B EQ PUSH2 0xA4 JUMPI PUSH1 0x0 DUP1 REVERT JUMPDEST CALLVALUE PUSH2 0x130 JUMPI PUSH1 0x20 CALLDATASIZE PUSH1 0x3 NOT ADD SLT PUSH2 0x130 JUMPI PUSH1 0x1 PUSH1 0x1 PUSH1 0xA0 SHL SUB DUP3 CALLDATALOAD DUP2 DUP2 AND SWAP4 SWAP2 SWAP3 SWAP1 DUP5 SWAP1 SUB PUSH2 0x12C JUMPI PUSH2 0xD5 PUSH2 0x5B2 JUMP JUMPDEST DUP4 ISZERO PUSH2 0x116 JUMPI POP POP DUP3 SLOAD PUSH1 0x1 PUSH1 0x1 PUSH1 0xA0 SHL SUB NOT DUP2 AND DUP4 OR DUP5 SSTORE AND PUSH32 0x8BE0079C531659141344CD1FD0A4F28419497F9722A3DAAFE3B4186F6B6457E0 DUP4 DUP1 LOG3 DUP1 RETURN JUMPDEST MLOAD PUSH4 0x1E4FBDF7 PUSH1 0xE0 SHL DUP2 MSTORE SWAP1 DUP2 ADD DUP5 SWAP1 MSTORE PUSH1 0x24 SWAP1 REVERT JUMPDEST DUP5 DUP1 REVERT JUMPDEST DUP3 DUP1 REVERT JUMPDEST POP SWAP2 SWAP1 DUP2 PUSH1 0x3 NOT CALLDATASIZE ADD SLT PUSH2 0x3BE JUMPI DUP1 SLOAD TIMESTAMP LT PUSH2 0x381 JUMPI PUSH1 0x5 SLOAD TIMESTAMP GT PUSH2 0x34A JUMPI CALLVALUE ISZERO PUSH2 0x307 JUMPI PUSH1 0x2 SLOAD SWAP1 DUP2 CALLVALUE MUL SWAP2 CALLVALUE DUP4 DIV SUB PUSH2 0x2F4 JUMPI DUP2 ISZERO PUSH2 0x2B9 JUMPI PUSH2 0x179 CALLVALUE SELFBALANCE PUSH2 0x58F JUMP JUMPDEST PUSH1 0x3 SLOAD LT PUSH2 0x280 JUMPI SWAP3 DUP3 SWAP4 PUSH1 0x1 DUP1 PUSH1 0xA0 SHL SUB PUSH1 0x1 SLOAD AND SWAP1 DUP3 MLOAD SWAP2 PUSH4 0xA9059CBB PUSH1 0xE0 SHL DUP4 MSTORE CALLER DUP3 DUP5 ADD MSTORE DUP5 PUSH1 0x24 DUP5 ADD MSTORE DUP3 PUSH1 0x44 DUP2 PUSH1 0x20 SWAP9 DUP10 SWAP5 GAS CALL DUP1 ISZERO PUSH2 0x276 JUMPI PUSH2 0x210 JUMPI JUMPDEST POP POP PUSH32 0x5F7675B09617D2C9FA4FD13058EE5877A9538F626B0308816736E83748A45040 SWAP2 CALLER DUP6 MSTORE PUSH1 0x6 DUP5 MSTORE PUSH2 0x1F6 CALLVALUE DUP4 DUP8 KECCAK256 SLOAD PUSH2 0x58F JUMP JUMPDEST CALLER DUP7 MSTORE PUSH1 0x6 DUP6 MSTORE DUP3 DUP7 KECCAK256 SSTORE DUP2 MLOAD SWAP4 CALLVALUE DUP6 MSTORE DUP5 ADD MSTORE CALLER SWAP3 LOG2 DUP1 RETURN JUMPDEST DUP5 SWAP1 RETURNDATASIZE DUP7 GT PUSH2 0x26E JUMPI JUMPDEST PUSH1 0x1F DUP3 ADD PUSH1 0x1F NOT AND DUP4 ADD SWAP1 PUSH8 0xFFFFFFFFFFFFFFFF DUP3 GT DUP5 DUP4 LT OR PUSH2 0x25B JUMPI POP DUP6 SWAP2 DUP4 SWAP2 DUP6 MSTORE DUP2 ADD SUB SLT PUSH2 0x12C JUMPI MLOAD DUP1 ISZERO ISZERO SUB PUSH2 0x257 JUMPI CODESIZE DUP1 PUSH2 0x1BE JUMP JUMPDEST DUP4 DUP1 REVERT JUMPDEST PUSH4 0x4E487B71 PUSH1 0xE0 SHL DUP9 MSTORE PUSH1 0x41 SWAP1 MSTORE PUSH1 0x24 DUP8 REVERT JUMPDEST RETURNDATASIZE SWAP2 POP PUSH2 0x21A JUMP JUMPDEST DUP4 MLOAD RETURNDATASIZE DUP9 DUP3 RETURNDATACOPY RETURNDATASIZE SWAP1 REVERT JUMPDEST PUSH1 0x64 SWAP1 PUSH1 0x20 DUP6 MLOAD SWAP2 PUSH3 0x461BCD PUSH1 0xE5 SHL DUP4 MSTORE DUP3 ADD MSTORE PUSH1 0x13 PUSH1 0x24 DUP3 ADD MSTORE PUSH19 0x141C995CD85B194818D85C081C995858DA1959 PUSH1 0x6A SHL PUSH1 0x44 DUP3 ADD MSTORE REVERT JUMPDEST PUSH1 0x64 SWAP1 PUSH1 0x20 DUP6 MLOAD SWAP2 PUSH3 0x461BCD PUSH1 0xE5 SHL DUP4 MSTORE DUP3 ADD MSTORE PUSH1 0x15 PUSH1 0x24 DUP3 ADD MSTORE PUSH21 0x125B9CDD59999A58DA595B9D08109390881CD95B9D PUSH1 0x5A SHL PUSH1 0x44 DUP3 ADD MSTORE REVERT JUMPDEST PUSH4 0x4E487B71 PUSH1 0xE0 SHL DUP4 MSTORE PUSH1 0x11 SWAP1 MSTORE PUSH1 0x24 DUP3 REVERT JUMPDEST PUSH1 0x64 SWAP1 PUSH1 0x20 DUP5 MLOAD SWAP2 PUSH3 0x461BCD PUSH1 0xE5 SHL DUP4 MSTORE DUP3 ADD MSTORE PUSH1 0x1C PUSH1 0x24 DUP3 ADD MSTORE PUSH32 0x4D7573742073656E6420424E4220746F20706172746963697061746500000000 PUSH1 0x44 DUP3 ADD MSTORE REVERT JUMPDEST PUSH1 0x64 SWAP1 PUSH1 0x20 DUP5 MLOAD SWAP2 PUSH3 0x461BCD PUSH1 0xE5 SHL DUP4 MSTORE DUP3 ADD MSTORE PUSH1 0x11 PUSH1 0x24 DUP3 ADD MSTORE PUSH17 0x141C995CD85B19481A185CC8195B991959 PUSH1 0x7A SHL PUSH1 0x44 DUP3 ADD MSTORE REVERT JUMPDEST PUSH1 0x64 SWAP1 PUSH1 0x20 DUP5 MLOAD SWAP2 PUSH3 0x461BCD PUSH1 0xE5 SHL DUP4 MSTORE DUP3 ADD MSTORE PUSH1 0x17 PUSH1 0x24 DUP3 ADD MSTORE PUSH23 0x141C995CD85B19481A185CC81B9BDD081CDD185C9D1959 PUSH1 0x4A SHL PUSH1 0x44 DUP3 ADD MSTORE REVERT JUMPDEST POP DUP1 REVERT JUMPDEST POP SWAP1 CALLVALUE PUSH2 0x130 JUMPI DUP3 PUSH1 0x3 NOT CALLDATASIZE ADD SLT PUSH2 0x130 JUMPI PUSH1 0x20 SWAP3 POP SLOAD SWAP1 MLOAD SWAP1 DUP2 MSTORE RETURN JUMPDEST DUP4 DUP3 CALLVALUE PUSH2 0x3BE JUMPI DUP2 PUSH1 0x3 NOT CALLDATASIZE ADD SLT PUSH2 0x3BE JUMPI MLOAD SELFBALANCE DUP2 MSTORE PUSH1 0x20 SWAP1 RETURN JUMPDEST DUP4 DUP3 CALLVALUE PUSH2 0x3BE JUMPI DUP2 PUSH1 0x3 NOT CALLDATASIZE ADD SLT PUSH2 0x3BE JUMPI SWAP1 SLOAD SWAP1 MLOAD PUSH1 0x1 PUSH1 0x1 PUSH1 0xA0 SHL SUB SWAP1 SWAP2 AND DUP2 MSTORE PUSH1 0x20 SWAP1 RETURN JUMPDEST DUP4 DUP3 CALLVALUE PUSH2 0x3BE JUMPI DUP2 PUSH1 0x3 NOT CALLDATASIZE ADD SLT PUSH2 0x3BE JUMPI PUSH1 0x1 SLOAD SWAP1 MLOAD PUSH1 0x1 PUSH1 0x1 PUSH1 0xA0 SHL SUB SWAP1 SWAP2 AND DUP2 MSTORE PUSH1 0x20 SWAP1 RETURN JUMPDEST DUP4 CALLVALUE PUSH2 0x4A6 JUMPI DUP1 PUSH1 0x3 NOT CALLDATASIZE ADD SLT PUSH2 0x4A6 JUMPI PUSH2 0x465 PUSH2 0x5B2 JUMP JUMPDEST DUP1 SLOAD PUSH1 0x1 PUSH1 0x1 PUSH1 0xA0 SHL SUB NOT DUP2 AND DUP3 SSTORE DUP2 SWAP1 PUSH1 0x1 PUSH1 0x1 PUSH1 0xA0 SHL SUB AND PUSH32 0x8BE0079C531659141344CD1FD0A4F28419497F9722A3DAAFE3B4186F6B6457E0 DUP3 DUP1 LOG3 DUP1 RETURN JUMPDEST DUP1 REVERT JUMPDEST DUP4 DUP3 CALLVALUE PUSH2 0x3BE JUMPI DUP2 PUSH1 0x3 NOT CALLDATASIZE ADD SLT PUSH2 0x3BE JUMPI PUSH1 0x20 SWAP1 PUSH1 0x3 SLOAD SWAP1 MLOAD SWAP1 DUP2 MSTORE RETURN JUMPDEST DUP4 DUP3 CALLVALUE PUSH2 0x3BE JUMPI DUP2 PUSH1 0x3 NOT CALLDATASIZE ADD SLT PUSH2 0x3BE JUMPI PUSH1 0x20 SWAP1 PUSH1 0x2 SLOAD SWAP1 MLOAD SWAP1 DUP2 MSTORE RETURN JUMPDEST POP SWAP1 CALLVALUE PUSH2 0x130 JUMPI PUSH1 0x20 CALLDATASIZE PUSH1 0x3 NOT ADD SLT PUSH2 0x130 JUMPI CALLDATALOAD PUSH1 0x1 PUSH1 0x1 PUSH1 0xA0 SHL SUB DUP2 AND SWAP1 DUP2 SWAP1 SUB PUSH2 0x130 JUMPI DUP3 DUP3 SWAP2 PUSH1 0x20 SWAP5 MSTORE PUSH1 0x6 DUP5 MSTORE KECCAK256 SLOAD SWAP1 MLOAD SWAP1 DUP2 MSTORE RETURN JUMPDEST DUP4 DUP3 CALLVALUE PUSH2 0x3BE JUMPI DUP2 PUSH1 0x3 NOT CALLDATASIZE ADD SLT PUSH2 0x3BE JUMPI PUSH1 0x20 SWAP1 PUSH1 0x5 SLOAD SWAP1 MLOAD SWAP1 DUP2 MSTORE RETURN JUMPDEST DUP4 DUP3 CALLVALUE PUSH2 0x3BE JUMPI DUP2 PUSH1 0x3 NOT CALLDATASIZE ADD SLT PUSH2 0x3BE JUMPI PUSH2 0x55A PUSH2 0x5B2 JUMP JUMPDEST DUP2 DUP1 DUP1 DUP1 PUSH1 0x1 DUP1 PUSH1 0xA0 SHL SUB DUP2 SLOAD AND SELFBALANCE SWAP1 DUP3 DUP3 ISZERO PUSH2 0x586 JUMPI JUMPDEST CALL ISZERO PUSH2 0x57C JUMPI POP DUP1 RETURN JUMPDEST MLOAD SWAP1 RETURNDATASIZE SWAP1 DUP3 RETURNDATACOPY RETURNDATASIZE SWAP1 REVERT JUMPDEST POP PUSH2 0x8FC PUSH2 0x572 JUMP JUMPDEST SWAP2 SWAP1 DUP3 ADD DUP1 SWAP3 GT PUSH2 0x59C JUMPI JUMP JUMPDEST PUSH4 0x4E487B71 PUSH1 0xE0 SHL PUSH1 0x0 MSTORE PUSH1 0x11 PUSH1 0x4 MSTORE PUSH1 0x24 PUSH1 0x0 REVERT JUMPDEST PUSH1 0x0 SLOAD PUSH1 0x1 PUSH1 0x1 PUSH1 0xA0 SHL SUB AND CALLER SUB PUSH2 0x5C6 JUMPI JUMP JUMPDEST PUSH1 0x40 MLOAD PUSH4 0x118CDAA7 PUSH1 0xE0 SHL DUP2 MSTORE CALLER PUSH1 0x4 DUP3 ADD MSTORE PUSH1 0x24 SWAP1 REVERT INVALID LOG2 PUSH5 0x6970667358 0x22 SLT KECCAK256 CALLCODE GT 0xD2 SELFBALANCE SLOAD COINBASE PUSH27 0xEA981F5D69AC48C00C2E02EC23554A346F636C0202602709956473 PUSH16 0x6C634300081800330000000000000000 "},"methodIdentifiers":{"contributions(address)":"42e94c90","getPresaleRaised()":"94840713","owner()":"8da5cb5b","participate()":"d11711a2","presaleCap()":"63d5502f","presaleEndTime()":"249b7c19","presaleRate()":"42f39381","presaleStartTime()":"a82524b2","renounceOwnership()":"715018a6","silverDogeToken()":"8308f8a7","transferOwnership(address)":"f2fde38b","withdrawBNB()":"1d111d13"}}}}}