{"contracts/Silver.sol":{"Silver":{"abi":[{"inputs":[{"internalType":"string","name":"projectURI_","type":"string"},{"internalType":"string","name":"name_","type":"string"},{"internalType":"string","name":"symbol_","type":"string"},{"internalType":"uint256","name":"totalSupply_","type":"uint256"},{"internalType":"uint256","name":"decimal_","type":"uint256"},{"internalType":"uint256","name":"price_","type":"uint256"},{"internalType":"address","name":"creator_","type":"address"},{"internalType":"address","name":"tokenAddress_","type":"address"},{"internalType":"address","name":"listerAddress_","type":"address"},{"internalType":"address","name":"daoAddress_","type":"address"},{"internalType":"address","name":"fundRaisedAddress_","type":"address"},{"internalType":"uint256","name":"softcap_","type":"uint256"},{"internalType":"uint256","name":"hardcap_","type":"uint256"},{"internalType":"uint256","name":"endTime_","type":"uint256"}],"stateMutability":"nonpayable","type":"constructor"},{"inputs":[{"internalType":"address","name":"target","type":"address"}],"name":"AddressEmptyCode","type":"error"},{"inputs":[{"internalType":"address","name":"account","type":"address"}],"name":"AddressInsufficientBalance","type":"error"},{"inputs":[],"name":"FailedInnerCall","type":"error"},{"inputs":[],"name":"ReentrancyGuardReentrantCall","type":"error"},{"inputs":[{"internalType":"address","name":"token","type":"address"}],"name":"SafeERC20FailedOperation","type":"error"},{"anonymous":false,"inputs":[{"indexed":false,"internalType":"address","name":"ico","type":"address"},{"indexed":false,"internalType":"address","name":"distributor","type":"address"},{"indexed":false,"internalType":"uint256","name":"fundsRaised","type":"uint256"},{"indexed":false,"internalType":"uint256","name":"daoFee","type":"uint256"},{"indexed":false,"internalType":"uint256","name":"listerFee","type":"uint256"},{"indexed":false,"internalType":"uint256","name":"creatorFee","type":"uint256"},{"indexed":false,"internalType":"uint256","name":"timestamp","type":"uint256"}],"name":"FeeDistributed","type":"event"},{"anonymous":false,"inputs":[{"indexed":false,"internalType":"address","name":"ico","type":"address"},{"indexed":false,"internalType":"address","name":"refunder","type":"address"},{"indexed":false,"internalType":"uint256","name":"timestamp","type":"uint256"}],"name":"FundsAllRefund","type":"event"},{"anonymous":false,"inputs":[{"indexed":false,"internalType":"address","name":"ico","type":"address"},{"indexed":false,"internalType":"address","name":"investor","type":"address"},{"indexed":false,"internalType":"address","name":"contributor","type":"address"},{"indexed":false,"internalType":"uint256","name":"amount","type":"uint256"},{"indexed":false,"internalType":"uint256","name":"timestamp","type":"uint256"}],"name":"Invest","type":"event"},{"stateMutability":"payable","type":"fallback"},{"inputs":[{"internalType":"address","name":"","type":"address"}],"name":"contributions","outputs":[{"internalType":"uint256","name":"","type":"uint256"}],"stateMutability":"view","type":"function"},{"inputs":[{"internalType":"uint256","name":"","type":"uint256"}],"name":"contributors","outputs":[{"internalType":"address","name":"","type":"address"}],"stateMutability":"view","type":"function"},{"inputs":[],"name":"creator","outputs":[{"internalType":"address","name":"","type":"address"}],"stateMutability":"view","type":"function"},{"inputs":[],"name":"daoAddress","outputs":[{"internalType":"address","name":"","type":"address"}],"stateMutability":"view","type":"function"},{"inputs":[],"name":"distribution","outputs":[{"internalType":"bool","name":"distributed","type":"bool"},{"internalType":"address","name":"distributor","type":"address"},{"internalType":"uint256","name":"timestamp","type":"uint256"}],"stateMutability":"view","type":"function"},{"inputs":[],"name":"endTime","outputs":[{"internalType":"uint256","name":"","type":"uint256"}],"stateMutability":"view","type":"function"},{"inputs":[{"internalType":"uint256","name":"amount_","type":"uint256"}],"name":"ethdByTokens","outputs":[{"internalType":"uint256","name":"","type":"uint256"}],"stateMutability":"view","type":"function"},{"inputs":[],"name":"finish","outputs":[],"stateMutability":"payable","type":"function"},{"inputs":[],"name":"fundRaisedAddress","outputs":[{"internalType":"address","name":"","type":"address"}],"stateMutability":"view","type":"function"},{"inputs":[],"name":"fundsRaised","outputs":[{"internalType":"uint256","name":"","type":"uint256"}],"stateMutability":"view","type":"function"},{"inputs":[{"internalType":"address","name":"from","type":"address"}],"name":"getContributorAmount","outputs":[{"internalType":"uint256","name":"","type":"uint256"}],"stateMutability":"view","type":"function"},{"inputs":[],"name":"getContributors","outputs":[{"internalType":"address[]","name":"","type":"address[]"}],"stateMutability":"view","type":"function"},{"inputs":[],"name":"getHistory","outputs":[{"components":[{"internalType":"address","name":"contributor","type":"address"},{"internalType":"address","name":"investor","type":"address"},{"internalType":"uint256","name":"amount","type":"uint256"},{"internalType":"uint256","name":"timestamp","type":"uint256"}],"internalType":"struct Silver.HISTORY[]","name":"","type":"tuple[]"}],"stateMutability":"view","type":"function"},{"inputs":[],"name":"getICOState","outputs":[{"internalType":"enum Silver.ICOState","name":"_state","type":"uint8"}],"stateMutability":"view","type":"function"},{"inputs":[{"internalType":"address","name":"from","type":"address"}],"name":"getInvestAmount","outputs":[{"internalType":"uint256","name":"","type":"uint256"}],"stateMutability":"view","type":"function"},{"inputs":[],"name":"getInvestors","outputs":[{"internalType":"address[]","name":"","type":"address[]"}],"stateMutability":"view","type":"function"},{"inputs":[{"internalType":"address","name":"from","type":"address"}],"name":"getTokenAmountForInvestor","outputs":[{"internalType":"uint256","name":"","type":"uint256"}],"stateMutability":"view","type":"function"},{"inputs":[],"name":"hardcap","outputs":[{"internalType":"uint256","name":"","type":"uint256"}],"stateMutability":"view","type":"function"},{"inputs":[{"internalType":"uint256","name":"","type":"uint256"}],"name":"history","outputs":[{"internalType":"address","name":"contributor","type":"address"},{"internalType":"address","name":"investor","type":"address"},{"internalType":"uint256","name":"amount","type":"uint256"},{"internalType":"uint256","name":"timestamp","type":"uint256"}],"stateMutability":"view","type":"function"},{"inputs":[{"internalType":"uint256","name":"amount_","type":"uint256"},{"internalType":"address","name":"contributor_","type":"address"}],"name":"invest","outputs":[],"stateMutability":"payable","type":"function"},{"inputs":[{"internalType":"address","name":"","type":"address"}],"name":"investments","outputs":[{"internalType":"uint256","name":"","type":"uint256"}],"stateMutability":"view","type":"function"},{"inputs":[{"internalType":"uint256","name":"","type":"uint256"}],"name":"investors","outputs":[{"internalType":"address","name":"","type":"address"}],"stateMutability":"view","type":"function"},{"inputs":[],"name":"lister","outputs":[{"internalType":"address","name":"","type":"address"}],"stateMutability":"view","type":"function"},{"inputs":[],"name":"maxTokenAmountToPurchase","outputs":[{"internalType":"uint256","name":"","type":"uint256"}],"stateMutability":"view","type":"function"},{"inputs":[],"name":"minEthAvailable","outputs":[{"internalType":"uint256","name":"","type":"uint256"}],"stateMutability":"view","type":"function"},{"inputs":[],"name":"owner","outputs":[{"internalType":"address","name":"","type":"address"}],"stateMutability":"view","type":"function"},{"inputs":[],"name":"projectURI","outputs":[{"internalType":"string","name":"","type":"string"}],"stateMutability":"view","type":"function"},{"inputs":[],"name":"refund","outputs":[{"internalType":"bool","name":"refunded","type":"bool"},{"internalType":"address","name":"refunder","type":"address"},{"internalType":"uint256","name":"timestamp","type":"uint256"}],"stateMutability":"view","type":"function"},{"inputs":[],"name":"silverToken","outputs":[{"internalType":"contract IERC20","name":"","type":"address"}],"stateMutability":"view","type":"function"},{"inputs":[],"name":"softcap","outputs":[{"internalType":"uint256","name":"","type":"uint256"}],"stateMutability":"view","type":"function"},{"inputs":[],"name":"startTime","outputs":[{"internalType":"uint256","name":"","type":"uint256"}],"stateMutability":"view","type":"function"},{"inputs":[],"name":"tokenInfo","outputs":[{"internalType":"string","name":"name","type":"string"},{"internalType":"string","name":"symbol","type":"string"},{"internalType":"uint256","name":"decimal","type":"uint256"},{"internalType":"uint256","name":"price","type":"uint256"},{"internalType":"uint256","name":"totalSupply","type":"uint256"},{"internalType":"address","name":"tokenAddress","type":"address"}],"stateMutability":"view","type":"function"},{"inputs":[],"name":"tokensAvailable","outputs":[{"internalType":"uint256","name":"","type":"uint256"}],"stateMutability":"view","type":"function"},{"inputs":[{"internalType":"uint256","name":"eth_","type":"uint256"}],"name":"tokensAvailableByEth","outputs":[{"internalType":"uint256","name":"","type":"uint256"}],"stateMutability":"view","type":"function"},{"inputs":[{"internalType":"uint256","name":"amount_","type":"uint256"}],"name":"tokensByEth","outputs":[{"internalType":"uint256","name":"","type":"uint256"}],"stateMutability":"view","type":"function"},{"inputs":[],"name":"tokensFullyCharged","outputs":[{"internalType":"bool","name":"","type":"bool"}],"stateMutability":"view","type":"function"},{"inputs":[],"name":"totalCap","outputs":[{"internalType":"uint256","name":"","type":"uint256"}],"stateMutability":"view","type":"function"},{"stateMutability":"payable","type":"receive"}],"evm":{"bytecode":{"linkReferences":{},"object":"60a080604052346200096257620025bf803803809162000020828562000967565b83398101906101c081830312620009625780516001600160401b03811162000962578262000050918301620009b0565b60208201519091906001600160401b03811162000962578362000075918301620009b0565b604082015190936001600160401b038211620009625762000098918301620009b0565b9260608201519360808301519460a084015195620000b960c0860162000a0b565b620000c760e0870162000a0b565b97620000d7610100880162000a0b565b92620000e7610120890162000a0b565b94620000f76101408a0162000a0b565b966101608a0151986101a06101808c01519b01519b60016000556200013362000121878662000a20565b6200012c8762000a4a565b9062000a59565b604051906001600160401b036060830190811190831117620005d4578d620001f160a460009493846060879601604052602481527f546f74616c546f6b656e56616c75652c20686172646361702d2d2d2d2d2d2d2d6020820152631696969f60e11b604082015260405194859263ca47c4eb60e01b602085015260606024850152620001cf83518094816084880152602088880191016200098b565b60448401526064830152601f8019910116810103608481018452018262000967565b6020815191016a636f6e736f6c652e6c6f675afa508b6200022262000217888762000a20565b6200012c8862000a4a565b1062000912576200026e8e6200023a86151562000a7a565b6200024787151562000a7a565b6200025d6001600160a01b038a16151562000ac7565b6001600160a01b0316151562000ac7565b620002846001600160a01b038916151562000ac7565b6200029a6001600160a01b038a16151562000ac7565b620002b06001600160a01b038b16151562000ac7565b8a15620008c1578b1562000881578a8c11156200083d578c421015620007f857600280546001600160a01b031916331790558051906001600160401b038211620005d457600b5490600182811c92168015620007ed575b6020831014620005b35781601f8493116200077b575b50602090601f8311600114620006ec57600092620006e0575b50508160011b916000199060031b1c191617600b555b8051906001600160401b038211620005d45760105490600182811c92168015620006d5575b6020831014620005b35781601f84931162000674575b50602090601f8311600114620005f657600092620005ea575b50508160011b916000199060031b1c1916176010555b8051906001600160401b038211620005d45760115490600182811c92168015620005c9575b6020831014620005b35781601f8493116200054f575b50602090601f8311600114620004d557600092620004c9575b50508160011b916000199060031b1c1916176011555b601455601255601355601580546001600160a01b03199081166001600160a01b039a8b16908117909255600380548216938b1693909317909255600180548316938a169390931790925560048054821693891693909317909255600580549092169290961691909117905560085560095542600655600755608052604051611a57908162000b08823960805181818161033e015281816103ed015281816114aa015261164f0152f35b0151905038806200040a565b601160009081526000805160206200255f8339815191529350601f198516905b8181106200053657509084600195949392106200051c575b505050811b0160115562000420565b015160001960f88460031b161c191690553880806200050d565b92936020600181928786015181550195019301620004f5565b60116000529091506000805160206200255f833981519152601f840160051c81019160208510620005a8575b90601f859493920160051c01905b818110620005985750620003f1565b6000815584935060010162000589565b90915081906200057b565b634e487b7160e01b600052602260045260246000fd5b91607f1691620003db565b634e487b7160e01b600052604160045260246000fd5b015190503880620003a0565b6010600090815293506000805160206200259f83398151915291905b601f198416851062000658576001945083601f198116106200063e575b505050811b01601055620003b6565b015160001960f88460031b161c191690553880806200062f565b8181015183556020948501946001909301929091019062000612565b60106000529091506000805160206200259f833981519152601f840160051c810160208510620006cd575b90849392915b601f830160051c82018110620006bd57505062000387565b60008155859450600101620006a5565b50806200069f565b91607f169162000371565b01519050388062000336565b600b600090815293507f0175b7a638427703f0dbe7bb9bbf987a2551717b34e79f33b5b1008d1fa01db991905b601f19841685106200075f576001945083601f1981161062000745575b505050811b01600b556200034c565b015160001960f88460031b161c1916905538808062000736565b8181015183556020948501946001909301929091019062000719565b600b6000529091507f0175b7a638427703f0dbe7bb9bbf987a2551717b34e79f33b5b1008d1fa01db9601f840160051c810160208510620007e5575b90849392915b601f830160051c82018110620007d55750506200031d565b60008155859450600101620007bd565b5080620007b7565b91607f169162000307565b60405162461bcd60e51b815260206004820152601460248201527f49434f206973207374696c6c2072756e6e696e670000000000000000000000006044820152606490fd5b60405162461bcd60e51b815260206004820152602760248201526000805160206200257f8339815191526044820152660736f66746361760cc1b6064820152608490fd5b60405162461bcd60e51b8152602060048201526024808201526000805160206200257f8339815191526044820152637a65726f60e01b6064820152608490fd5b60405162461bcd60e51b8152602060048201526024808201527f536f66746361702073686f756c64207365742067726561746572207468616e206044820152637a65726f60e01b6064820152608490fd5b60405162461bcd60e51b815260206004820152602260248201527f496e73756666696369656e7420746f74616c20737570706c79206f6620746f6b60448201526132b760f11b6064820152608490fd5b600080fd5b601f909101601f19168101906001600160401b03821190821017620005d457604052565b60005b8381106200099f5750506000910152565b81810151838201526020016200098e565b81601f82011215620009625780516001600160401b038111620005d45760405192620009e7601f8301601f19166020018562000967565b81845260208284010111620009625762000a0891602080850191016200098b565b90565b51906001600160a01b03821682036200096257565b8181029291811591840414171562000a3457565b634e487b7160e01b600052601160045260246000fd5b604d811162000a3457600a0a90565b811562000a64570490565b634e487b7160e01b600052601260045260246000fd5b1562000a8257565b60405162461bcd60e51b815260206004820152601d60248201527f416d6f756e74206d7573742062652067726561746572207468616e20300000006044820152606490fd5b1562000acf57565b60405162461bcd60e51b815260206004820152601060248201526f496e76616c696420416464726573737360801b6044820152606490fdfe608060408181526004918236101561001f575b505050361561001d57005b005b600092833560e01c91826302d05d3f14611269575081631069789b14611243578163164500921461121f5781631909d0d5146111db5781632131c68c146111b35781632cdc1c741461118a5781632e51846414610b805781632e659d93146111185781633197cbb6146110f957816335aa0bef14610abb5781633c3610aa146110d55781633cb5d100146110aa5781633d103b9714610bf95781633feb5f2b14610bb857816342e94c9014610b80578163590e1ae314610b3c5781635bed7ef714610b045781635ee58efc14610ac057816360659a9214610abb5781636681b9fd14610a9c57816369a72a6e14610a5f5781636addb663146108775781636e6fb49f1461077c57816378e979251461075d5781638da5cb5b1461073457816396b988621461070c578163a7a38f0b146106a8578163aa15efc81461058e578163ac6d7b6614610550578163af157c19146104ce578163b071cbe6146104af578163b2f5a54c1461041c578163c34fe1dd146103d8578163d56b28891461024657508063f89be59314610228578063f8b28422146101f15763fd572337146101c65780610012565b346101ed57816003193601126101ed5760055490516001600160a01b039091168152602090f35b5080fd5b50346101ed5760203660031901126101ed5760209181906001600160a01b0361021861128e565b168152600e845220549051908152f35b50346101ed57816003193601126101ed576020906008549051908152f35b9050826003193601126103d45761025b61152e565b60075442111561039d5750600a5460085411610281575061027a611591565b6001815580f35b815b600c548110156103005782610297826112fd565b905460039190911b1c6001600160a01b0316808252600e60205283822080549083905590811580156102d0575b50505050600101610283565b83928392839283906102f7575bf1156102ec57823880806102c4565b5051903d90823e3d90fd5b506108fc6102dd565b5060607ffc1b2a311c2a7de088d45026bed67af97341e100fd9069de4468ed5c9b4e1e429161036261033061148f565b6003546001600160a01b03167f000000000000000000000000000000000000000000000000000000000000000061190c565b60016018546101008260a81b033360081b1690828060a81b0319161717601855426019558051903082523360208301524290820152a161027a565b6020606492519162461bcd60e51b8352820152601260248201527124a1a7903737ba1032b73232b2103cb2ba1760711b6044820152fd5b8280fd5b5050346101ed57816003193601126101ed57517f00000000000000000000000000000000000000000000000000000000000000006001600160a01b03168152602090f35b8284346104ac57806003193601126104ac578151600c805480835290835260208083019492937fdf6966c971051c3d54ec59162606531493a51404a002842f56009d7e5cf4a8c792915b82821061048c57610488868661047e828b038361134a565b51918291826113cb565b0390f35b83546001600160a01b031687529586019560019384019390910190610466565b80fd5b5050346101ed57816003193601126101ed576020906009549051908152f35b8284346104ac57806003193601126104ac578151600d805480835290835260208083019492937fd7b6990105719101dabeb77144f2a3385c8033acd3af97e9423a695e81ad1eb592915b82821061053057610488868661047e828b038361134a565b83546001600160a01b031687529586019560019384019390910190610518565b8284346104ac5760203660031901126104ac575061058761057660209335601354611410565b610581601254611439565b90611447565b9051908152f35b839150346101ed57816003193601126101ed57601a5467ffffffffffffffff811161069557916020928451906105c9858260051b018361134a565b8082528482019384601a855286852085915b848310610646575050505050845193808501918186525180925285850193925b8281106106085785850386f35b835180516001600160a01b039081168752818401511686840152878101518887015260609081015190860152608090940193928101926001016105fb565b83896001928c9b98999b5161065a81611318565b848060a01b038087541682528587015416838201528d60028701549082015260038601546060820152815201920192019190979594976105db565b634e487b7160e01b835260418252602483fd5b9050346103d45760203660031901126103d4573591601a548310156104ac57506106d36080926113ac565b5080546001820154600283015460039093015484516001600160a01b039384168152919092166020820152928301919091526060820152f35b5050346101ed5760203660031901126101ed5760209181906001600160a01b0361021861128e565b5050346101ed57816003193601126101ed5760025490516001600160a01b039091168152602090f35b5050346101ed57816003193601126101ed576020906006549051908152f35b8284346104ac57806003193601126104ac5781519181600b549260018460011c916001861695861561086d575b602096878510811461085a578899509688969785829a5291826000146108335750506001146107f5575b50505061048892916107e691038561134a565b5192828493845283019061136c565b9190869350600b83528383205b82841061081b57505050820101816107e66104886107d3565b8054848a018601528895508794909301928101610802565b60ff19168782015293151560051b860190930193508492506107e6915061048890506107d3565b634e487b7160e01b835260228a52602483fd5b92607f16926107a9565b8383346101ed57816003193601126101ed57805191806010549460019286841c848816978815610a55575b6020988983108114610a42579189939189938285529081600014610a2457506001146109e7575b506108d69250038661134a565b8351928260115480831c938382169081156109dd575b8a861082146109ca57508487529081156109a8575060011461096d575b5050509361091c8261094996038361134a565b601254601354906109566014549360018060a01b0360155416958751998a9960c08b5260c08b019061136c565b91898303908a015261136c565b948601526060850152608084015260a08301520390f35b969250601187528287205b8288106109955750505061091c8282610949978201019296610909565b8054858901850152968301968101610978565b60ff1916868a0152505050151560051b82018501905061091c82610949610909565b634e487b7160e01b845260229052602483fd5b94607f16946108ec565b6010865283862086925087905b828410610a0d57505050916108d69282010188926108c9565b80548b85018701528a9450928501928891016109f4565b60ff19168486015250899390151560051b83010190506108d66108c9565b634e487b7160e01b865260228552602486fd5b90607f16906108a2565b5050346101ed57816003193601126101ed57602090670de0b6b3a7640000610a94601354610a8e601254611439565b90611410565b049051908152f35b5050346101ed57816003193601126101ed57602090600a549051908152f35b6112a9565b8284346104ac57806003193601126104ac5750601654601754915160ff82161515815260089190911c6001600160a01b031660208201526040810191909152606090f35b8284346104ac5760203660031901126104ac5750610587610b33602093610b2c601254611439565b9035611410565b60135490611447565b8284346104ac57806003193601126104ac5750601854601954915160ff82161515815260089190911c6001600160a01b031660208201526040810191909152606090f35b5050346101ed5760203660031901126101ed5760209181906001600160a01b03610ba861128e565b168152600f845220549051908152f35b9050346103d45760203660031901126103d4573591600c548310156104ac5750610be36020926112fd565b905491519160018060a01b039160031b1c168152f35b9050816003193601126103d4576001600160a01b039181359160248035858116939291908490036110a657610c2c61152e565b610c3461148f565b610c416013549182611410565b90610c526012549261058184611439565b600954101561105257610c7e90610c79610c73610c6d61148f565b94611439565b89611410565b611447565b1161101157600754421015610fe1578415610faf57843410610f74578315610f3357338752602095600e87528388205415610efd575b338852600e8752838820610cc9878254611521565b9055848852600f87528388205415610eb5575b848852600f8752838820610cf1878254611521565b9055853403348111610ea3578890873414908115610e73575b505050835190610d1982611318565b338252878201868152858301908882526060840192428452601a54600160401b811015610e6157806001610d509201601a556113ac565b959095610e50575185546001600160a01b0319908116918316919091178655915160018601805490931691161790555160028301555160039190910155600a54610d9b908690611521565b80600a556009541115610df2575b867f842768b94b018e5aa48731ee69f4550eb378c75290e54507b23e4272ef1ed4c960a08888888880519330855233908501528301526060820152426080820152a16001815580f35b600019420191428311610e3f5750509160a093917f842768b94b018e5aa48731ee69f4550eb378c75290e54507b23e4272ef1ed4c99593600755610e34611591565b919381939550610da9565b634e487b7160e01b88526011905286fd5b634e487b7160e01b8d528c8852868dfd5b634e487b7160e01b8d5260418852868dfd5b8280929181928290610e9a575b3390f115610e9057873880610d0a565b83513d89823e3d90fd5b506108fc610e80565b634e487b7160e01b8952601184528289fd5b600d54600160401b811015610eeb57806001610ed49201600d556112cc565b81549060031b908388831b921b1916179055610cdc565b634e487b7160e01b8952604184528289fd5b600c54600160401b811015610eeb57806001610f1c9201600c556112fd565b81549060031b908333831b921b1916179055610cb4565b601d906020606494519362461bcd60e51b85528401528201527f496e76616c696420636f6e7472696275746f72277320616464726573730000006044820152fd5b6017906020606494519362461bcd60e51b855284015282015276125b9cdd59999a58da595b9d08115d1a08185b5bdd5b9d604a1b6044820152fd5b600e906020606494519362461bcd60e51b85528401528201526d125b9d985b1a5908185b5bdd5b9d60921b6044820152fd5b600c906020606494519362461bcd60e51b85528401528201526b1250d3c81a5cc8195b99195960a21b6044820152fd5b601d906020606494519362461bcd60e51b85528401528201527f496e73756666696369656e7420746f6b656e7320617661696c61626c650000006044820152fd5b845162461bcd60e51b81526020818601526029818501527f546f6b656e732073686f756c6420626520636861726765642066756c6c79206260448201526865666f72652049434f60b81b6064820152608490fd5b8680fd5b9050346103d45760203660031901126103d4573591600d548310156104ac5750610be36020926112cc565b8284346104ac5760203660031901126104ac57506105876020926013549035611447565b5050346101ed57816003193601126101ed576020906007549051908152f35b8383346101ed57816003193601126101ed5760075442101561115c5781905b51918382101561114957602083838152f35b634e487b7160e01b815260218452602490fd5b600a5460095481106111715750600390611137565b600854111561118257600190611137565b600290611137565b5050346101ed57816003193601126101ed5760015490516001600160a01b039091168152602090f35b9050346103d457826003193601126103d4575490516001600160a01b03909116815260209150f35b5050346101ed5760203660031901126101ed5760209161058790610b339083906001600160a01b0361120b61128e565b168152600e86522054610a8e601254611439565b5050346101ed57816003193601126101ed5760209061058760095460135490611447565b5050346101ed57816003193601126101ed57602090611260611467565b90519015158152f35b8490346101ed57816003193601126101ed576003546001600160a01b03168152602090f35b600435906001600160a01b03821682036112a457565b600080fd5b346112a45760003660031901126112a45760206112c461148f565b604051908152f35b600d548110156112e757600d60005260206000200190600090565b634e487b7160e01b600052603260045260246000fd5b600c548110156112e757600c60005260206000200190600090565b6080810190811067ffffffffffffffff82111761133457604052565b634e487b7160e01b600052604160045260246000fd5b90601f8019910116810190811067ffffffffffffffff82111761133457604052565b919082519283825260005b848110611398575050826000602080949584010152601f8019910116010190565b602081830181015184830182015201611377565b601a548110156112e757601a60005260206000209060021b0190600090565b602090602060408183019282815285518094520193019160005b8281106113f3575050505090565b83516001600160a01b0316855293810193928101926001016113e5565b8181029291811591840414171561142357565b634e487b7160e01b600052601160045260246000fd5b604d811161142357600a0a90565b8115611451570490565b634e487b7160e01b600052601260045260246000fd5b61147d61057661147561148f565b601354611410565b6009541161148a57600190565b600090565b6040516370a0823160e01b81523060048201526020816024817f00000000000000000000000000000000000000000000000000000000000000006001600160a01b03165afa908115611515576000916114e6575090565b90506020813d60201161150d575b816115016020938361134a565b810103126112a4575190565b3d91506114f4565b6040513d6000823e3d90fd5b9190820180921161142357565b60026000541461153f576002600055565b604051633ee5aeb560e01b8152600490fd5b3d1561158c573d9067ffffffffffffffff82116113345760405191611580601f8201601f19166020018461134a565b82523d6000602084013e565b606090565b600a54906019820291801592818104601914841715611423576103e88091049360009460018060a01b0395600481808080868c8654165af16115d1611551565b50156118ce57600a8602868104600a148517156118695790858993920494828080808960019e8f54165af1611604611551565b501561187c57605f880290888204605f14171561186957606480910496838080808b89600554165af1611635611551565b5015611825578a9392919083855b611747575b50505050807f0000000000000000000000000000000000000000000000000000000000000000925b6116f0575b505050509060e09392917f8685f6684f1a26e02f6d97f68ab629b105865a82a09efb8d0a47293918edd3a89596601654610100600160a81b033360081b169060018060a81b0319161717601655426017556040519330855233602086015260408501526060840152608083015260a08201524260c0820152a1565b600c54811015611742579089826117398661170c8497966112fd565b90549060031b1c16808552600e602052611732610b336040872054610a8e601254611439565b908661190c565b01909192611670565b611675565b909192939450600d5481101561181d5785611761826112cc565b90549060031b1c16808652600f6020918183526040918289205481810291818304149015171561180a578880809388829404905af161179e611551565b50156117b5575050908b8094939201849594611643565b5162461bcd60e51b815280860191909152602a60248201527f4661696c656420746f2073656e6420636f6e747269627574696f6e20706172746044820152693732b913b9903332b29760b11b81850152608490fd5b634e487b7160e01b895260118852602489fd5b8b9493611648565b60405162461bcd60e51b8152602081850152601f60248201527f4661696c656420746f2073656e642063726561746f7227732066756e64732e006044820152606490fd5b634e487b7160e01b835260118252602483fd5b60405162461bcd60e51b8152602081840152602560248201527f4661696c656420746f2073656e64206c697374696e6720706172746e65722773604482015264103332b29760d91b6064820152608490fd5b60649060206040519162461bcd60e51b835282015260176024820152762330b4b632b2103a379039b2b732102220a7903332b29760491b6044820152fd5b60405163a9059cbb60e01b602082019081526001600160a01b03938416602483015260448083019590955293815292916119669161194985611318565b1692600080938192519082875af161195f611551565b90846119be565b908151918215159283611996575b50505061197e5750565b60249060405190635274afe760e01b82526004820152fd5b8192935090602091810103126101ed5760200151908115918215036104ac5750388080611974565b906119e557508051156119d357805190602001fd5b604051630a12f52160e11b8152600490fd5b81511580611a18575b6119f6575090565b604051639996b31560e01b81526001600160a01b039091166004820152602490fd5b50803b156119ee56fea26469706673582212200f47b1d2ed3247b7c96bad1e8fd94d02f181394fabf3385cc13b053f9191a35a64736f6c6343000818003331ecc21a745e3968a04e9570e4425bc18fa8019c68028196b546d1669c200c68486172646361702073686f756c64207365742067726561746572207468616e201b6847dc741a1b0cd08d278845f9d819d87b734759afb55fe2de5cb82a9ae672","opcodes":"PUSH1 0xA0 DUP1 PUSH1 0x40 MSTORE CALLVALUE PUSH3 0x962 JUMPI PUSH3 0x25BF DUP1 CODESIZE SUB DUP1 SWAP2 PUSH3 0x20 DUP3 DUP6 PUSH3 0x967 JUMP JUMPDEST DUP4 CODECOPY DUP2 ADD SWAP1 PUSH2 0x1C0 DUP2 DUP4 SUB SLT PUSH3 0x962 JUMPI DUP1 MLOAD PUSH1 0x1 PUSH1 0x1 PUSH1 0x40 SHL SUB DUP2 GT PUSH3 0x962 JUMPI DUP3 PUSH3 0x50 SWAP2 DUP4 ADD PUSH3 0x9B0 JUMP JUMPDEST PUSH1 0x20 DUP3 ADD MLOAD SWAP1 SWAP2 SWAP1 PUSH1 0x1 PUSH1 0x1 PUSH1 0x40 SHL SUB DUP2 GT PUSH3 0x962 JUMPI DUP4 PUSH3 0x75 SWAP2 DUP4 ADD PUSH3 0x9B0 JUMP JUMPDEST PUSH1 0x40 DUP3 ADD MLOAD SWAP1 SWAP4 PUSH1 0x1 PUSH1 0x1 PUSH1 0x40 SHL SUB DUP3 GT PUSH3 0x962 JUMPI PUSH3 0x98 SWAP2 DUP4 ADD PUSH3 0x9B0 JUMP JUMPDEST SWAP3 PUSH1 0x60 DUP3 ADD MLOAD SWAP4 PUSH1 0x80 DUP4 ADD MLOAD SWAP5 PUSH1 0xA0 DUP5 ADD MLOAD SWAP6 PUSH3 0xB9 PUSH1 0xC0 DUP7 ADD PUSH3 0xA0B JUMP JUMPDEST PUSH3 0xC7 PUSH1 0xE0 DUP8 ADD PUSH3 0xA0B JUMP JUMPDEST SWAP8 PUSH3 0xD7 PUSH2 0x100 DUP9 ADD PUSH3 0xA0B JUMP JUMPDEST SWAP3 PUSH3 0xE7 PUSH2 0x120 DUP10 ADD PUSH3 0xA0B JUMP JUMPDEST SWAP5 PUSH3 0xF7 PUSH2 0x140 DUP11 ADD PUSH3 0xA0B JUMP JUMPDEST SWAP7 PUSH2 0x160 DUP11 ADD MLOAD SWAP9 PUSH2 0x1A0 PUSH2 0x180 DUP13 ADD MLOAD SWAP12 ADD MLOAD SWAP12 PUSH1 0x1 PUSH1 0x0 SSTORE PUSH3 0x133 PUSH3 0x121 DUP8 DUP7 PUSH3 0xA20 JUMP JUMPDEST PUSH3 0x12C DUP8 PUSH3 0xA4A JUMP JUMPDEST SWAP1 PUSH3 0xA59 JUMP JUMPDEST PUSH1 0x40 MLOAD SWAP1 PUSH1 0x1 PUSH1 0x1 PUSH1 0x40 SHL SUB PUSH1 0x60 DUP4 ADD SWAP1 DUP2 GT SWAP1 DUP4 GT OR PUSH3 0x5D4 JUMPI DUP14 PUSH3 0x1F1 PUSH1 0xA4 PUSH1 0x0 SWAP5 SWAP4 DUP5 PUSH1 0x60 DUP8 SWAP7 ADD PUSH1 0x40 MSTORE PUSH1 0x24 DUP2 MSTORE PUSH32 0x546F74616C546F6B656E56616C75652C20686172646361702D2D2D2D2D2D2D2D PUSH1 0x20 DUP3 ADD MSTORE PUSH4 0x1696969F PUSH1 0xE1 SHL PUSH1 0x40 DUP3 ADD MSTORE PUSH1 0x40 MLOAD SWAP5 DUP6 SWAP3 PUSH4 0xCA47C4EB PUSH1 0xE0 SHL PUSH1 0x20 DUP6 ADD MSTORE PUSH1 0x60 PUSH1 0x24 DUP6 ADD MSTORE PUSH3 0x1CF DUP4 MLOAD DUP1 SWAP5 DUP2 PUSH1 0x84 DUP9 ADD MSTORE PUSH1 0x20 DUP9 DUP9 ADD SWAP2 ADD PUSH3 0x98B JUMP JUMPDEST PUSH1 0x44 DUP5 ADD MSTORE PUSH1 0x64 DUP4 ADD MSTORE PUSH1 0x1F DUP1 NOT SWAP2 ADD AND DUP2 ADD SUB PUSH1 0x84 DUP2 ADD DUP5 MSTORE ADD DUP3 PUSH3 0x967 JUMP JUMPDEST PUSH1 0x20 DUP2 MLOAD SWAP2 ADD PUSH11 0x636F6E736F6C652E6C6F67 GAS STATICCALL POP DUP12 PUSH3 0x222 PUSH3 0x217 DUP9 DUP8 PUSH3 0xA20 JUMP JUMPDEST PUSH3 0x12C DUP9 PUSH3 0xA4A JUMP JUMPDEST LT PUSH3 0x912 JUMPI PUSH3 0x26E DUP15 PUSH3 0x23A DUP7 ISZERO ISZERO PUSH3 0xA7A JUMP JUMPDEST PUSH3 0x247 DUP8 ISZERO ISZERO PUSH3 0xA7A JUMP JUMPDEST PUSH3 0x25D PUSH1 0x1 PUSH1 0x1 PUSH1 0xA0 SHL SUB DUP11 AND ISZERO ISZERO PUSH3 0xAC7 JUMP JUMPDEST PUSH1 0x1 PUSH1 0x1 PUSH1 0xA0 SHL SUB AND ISZERO ISZERO PUSH3 0xAC7 JUMP JUMPDEST PUSH3 0x284 PUSH1 0x1 PUSH1 0x1 PUSH1 0xA0 SHL SUB DUP10 AND ISZERO ISZERO PUSH3 0xAC7 JUMP JUMPDEST PUSH3 0x29A PUSH1 0x1 PUSH1 0x1 PUSH1 0xA0 SHL SUB DUP11 AND ISZERO ISZERO PUSH3 0xAC7 JUMP JUMPDEST PUSH3 0x2B0 PUSH1 0x1 PUSH1 0x1 PUSH1 0xA0 SHL SUB DUP12 AND ISZERO ISZERO PUSH3 0xAC7 JUMP JUMPDEST DUP11 ISZERO PUSH3 0x8C1 JUMPI DUP12 ISZERO PUSH3 0x881 JUMPI DUP11 DUP13 GT ISZERO PUSH3 0x83D JUMPI DUP13 TIMESTAMP LT ISZERO PUSH3 0x7F8 JUMPI PUSH1 0x2 DUP1 SLOAD PUSH1 0x1 PUSH1 0x1 PUSH1 0xA0 SHL SUB NOT AND CALLER OR SWAP1 SSTORE DUP1 MLOAD SWAP1 PUSH1 0x1 PUSH1 0x1 PUSH1 0x40 SHL SUB DUP3 GT PUSH3 0x5D4 JUMPI PUSH1 0xB SLOAD SWAP1 PUSH1 0x1 DUP3 DUP2 SHR SWAP3 AND DUP1 ISZERO PUSH3 0x7ED JUMPI JUMPDEST PUSH1 0x20 DUP4 LT EQ PUSH3 0x5B3 JUMPI DUP2 PUSH1 0x1F DUP5 SWAP4 GT PUSH3 0x77B JUMPI JUMPDEST POP PUSH1 0x20 SWAP1 PUSH1 0x1F DUP4 GT PUSH1 0x1 EQ PUSH3 0x6EC JUMPI PUSH1 0x0 SWAP3 PUSH3 0x6E0 JUMPI JUMPDEST POP POP DUP2 PUSH1 0x1 SHL SWAP2 PUSH1 0x0 NOT SWAP1 PUSH1 0x3 SHL SHR NOT AND OR PUSH1 0xB SSTORE JUMPDEST DUP1 MLOAD SWAP1 PUSH1 0x1 PUSH1 0x1 PUSH1 0x40 SHL SUB DUP3 GT PUSH3 0x5D4 JUMPI PUSH1 0x10 SLOAD SWAP1 PUSH1 0x1 DUP3 DUP2 SHR SWAP3 AND DUP1 ISZERO PUSH3 0x6D5 JUMPI JUMPDEST PUSH1 0x20 DUP4 LT EQ PUSH3 0x5B3 JUMPI DUP2 PUSH1 0x1F DUP5 SWAP4 GT PUSH3 0x674 JUMPI JUMPDEST POP PUSH1 0x20 SWAP1 PUSH1 0x1F DUP4 GT PUSH1 0x1 EQ PUSH3 0x5F6 JUMPI PUSH1 0x0 SWAP3 PUSH3 0x5EA JUMPI JUMPDEST POP POP DUP2 PUSH1 0x1 SHL SWAP2 PUSH1 0x0 NOT SWAP1 PUSH1 0x3 SHL SHR NOT AND OR PUSH1 0x10 SSTORE JUMPDEST DUP1 MLOAD SWAP1 PUSH1 0x1 PUSH1 0x1 PUSH1 0x40 SHL SUB DUP3 GT PUSH3 0x5D4 JUMPI PUSH1 0x11 SLOAD SWAP1 PUSH1 0x1 DUP3 DUP2 SHR SWAP3 AND DUP1 ISZERO PUSH3 0x5C9 JUMPI JUMPDEST PUSH1 0x20 DUP4 LT EQ PUSH3 0x5B3 JUMPI DUP2 PUSH1 0x1F DUP5 SWAP4 GT PUSH3 0x54F JUMPI JUMPDEST POP PUSH1 0x20 SWAP1 PUSH1 0x1F DUP4 GT PUSH1 0x1 EQ PUSH3 0x4D5 JUMPI PUSH1 0x0 SWAP3 PUSH3 0x4C9 JUMPI JUMPDEST POP POP DUP2 PUSH1 0x1 SHL SWAP2 PUSH1 0x0 NOT SWAP1 PUSH1 0x3 SHL SHR NOT AND OR PUSH1 0x11 SSTORE JUMPDEST PUSH1 0x14 SSTORE PUSH1 0x12 SSTORE PUSH1 0x13 SSTORE PUSH1 0x15 DUP1 SLOAD PUSH1 0x1 PUSH1 0x1 PUSH1 0xA0 SHL SUB NOT SWAP1 DUP2 AND PUSH1 0x1 PUSH1 0x1 PUSH1 0xA0 SHL SUB SWAP11 DUP12 AND SWAP1 DUP2 OR SWAP1 SWAP3 SSTORE PUSH1 0x3 DUP1 SLOAD DUP3 AND SWAP4 DUP12 AND SWAP4 SWAP1 SWAP4 OR SWAP1 SWAP3 SSTORE PUSH1 0x1 DUP1 SLOAD DUP4 AND SWAP4 DUP11 AND SWAP4 SWAP1 SWAP4 OR SWAP1 SWAP3 SSTORE PUSH1 0x4 DUP1 SLOAD DUP3 AND SWAP4 DUP10 AND SWAP4 SWAP1 SWAP4 OR SWAP1 SWAP3 SSTORE PUSH1 0x5 DUP1 SLOAD SWAP1 SWAP3 AND SWAP3 SWAP1 SWAP7 AND SWAP2 SWAP1 SWAP2 OR SWAP1 SSTORE PUSH1 0x8 SSTORE PUSH1 0x9 SSTORE TIMESTAMP PUSH1 0x6 SSTORE PUSH1 0x7 SSTORE PUSH1 0x80 MSTORE PUSH1 0x40 MLOAD PUSH2 0x1A57 SWAP1 DUP2 PUSH3 0xB08 DUP3 CODECOPY PUSH1 0x80 MLOAD DUP2 DUP2 DUP2 PUSH2 0x33E ADD MSTORE DUP2 DUP2 PUSH2 0x3ED ADD MSTORE DUP2 DUP2 PUSH2 0x14AA ADD MSTORE PUSH2 0x164F ADD MSTORE RETURN JUMPDEST ADD MLOAD SWAP1 POP CODESIZE DUP1 PUSH3 0x40A JUMP JUMPDEST PUSH1 0x11 PUSH1 0x0 SWAP1 DUP2 MSTORE PUSH1 0x0 DUP1 MLOAD PUSH1 0x20 PUSH3 0x255F DUP4 CODECOPY DUP2 MLOAD SWAP2 MSTORE SWAP4 POP PUSH1 0x1F NOT DUP6 AND SWAP1 JUMPDEST DUP2 DUP2 LT PUSH3 0x536 JUMPI POP SWAP1 DUP5 PUSH1 0x1 SWAP6 SWAP5 SWAP4 SWAP3 LT PUSH3 0x51C JUMPI JUMPDEST POP POP POP DUP2 SHL ADD PUSH1 0x11 SSTORE PUSH3 0x420 JUMP JUMPDEST ADD MLOAD PUSH1 0x0 NOT PUSH1 0xF8 DUP5 PUSH1 0x3 SHL AND SHR NOT AND SWAP1 SSTORE CODESIZE DUP1 DUP1 PUSH3 0x50D JUMP JUMPDEST SWAP3 SWAP4 PUSH1 0x20 PUSH1 0x1 DUP2 SWAP3 DUP8 DUP7 ADD MLOAD DUP2 SSTORE ADD SWAP6 ADD SWAP4 ADD PUSH3 0x4F5 JUMP JUMPDEST PUSH1 0x11 PUSH1 0x0 MSTORE SWAP1 SWAP2 POP PUSH1 0x0 DUP1 MLOAD PUSH1 0x20 PUSH3 0x255F DUP4 CODECOPY DUP2 MLOAD SWAP2 MSTORE PUSH1 0x1F DUP5 ADD PUSH1 0x5 SHR DUP2 ADD SWAP2 PUSH1 0x20 DUP6 LT PUSH3 0x5A8 JUMPI JUMPDEST SWAP1 PUSH1 0x1F DUP6 SWAP5 SWAP4 SWAP3 ADD PUSH1 0x5 SHR ADD SWAP1 JUMPDEST DUP2 DUP2 LT PUSH3 0x598 JUMPI POP PUSH3 0x3F1 JUMP JUMPDEST PUSH1 0x0 DUP2 SSTORE DUP5 SWAP4 POP PUSH1 0x1 ADD PUSH3 0x589 JUMP JUMPDEST SWAP1 SWAP2 POP DUP2 SWAP1 PUSH3 0x57B JUMP JUMPDEST PUSH4 0x4E487B71 PUSH1 0xE0 SHL PUSH1 0x0 MSTORE PUSH1 0x22 PUSH1 0x4 MSTORE PUSH1 0x24 PUSH1 0x0 REVERT JUMPDEST SWAP2 PUSH1 0x7F AND SWAP2 PUSH3 0x3DB JUMP JUMPDEST PUSH4 0x4E487B71 PUSH1 0xE0 SHL PUSH1 0x0 MSTORE PUSH1 0x41 PUSH1 0x4 MSTORE PUSH1 0x24 PUSH1 0x0 REVERT JUMPDEST ADD MLOAD SWAP1 POP CODESIZE DUP1 PUSH3 0x3A0 JUMP JUMPDEST PUSH1 0x10 PUSH1 0x0 SWAP1 DUP2 MSTORE SWAP4 POP PUSH1 0x0 DUP1 MLOAD PUSH1 0x20 PUSH3 0x259F DUP4 CODECOPY DUP2 MLOAD SWAP2 MSTORE SWAP2 SWAP1 JUMPDEST PUSH1 0x1F NOT DUP5 AND DUP6 LT PUSH3 0x658 JUMPI PUSH1 0x1 SWAP5 POP DUP4 PUSH1 0x1F NOT DUP2 AND LT PUSH3 0x63E JUMPI JUMPDEST POP POP POP DUP2 SHL ADD PUSH1 0x10 SSTORE PUSH3 0x3B6 JUMP JUMPDEST ADD MLOAD PUSH1 0x0 NOT PUSH1 0xF8 DUP5 PUSH1 0x3 SHL AND SHR NOT AND SWAP1 SSTORE CODESIZE DUP1 DUP1 PUSH3 0x62F JUMP JUMPDEST DUP2 DUP2 ADD MLOAD DUP4 SSTORE PUSH1 0x20 SWAP5 DUP6 ADD SWAP5 PUSH1 0x1 SWAP1 SWAP4 ADD SWAP3 SWAP1 SWAP2 ADD SWAP1 PUSH3 0x612 JUMP JUMPDEST PUSH1 0x10 PUSH1 0x0 MSTORE SWAP1 SWAP2 POP PUSH1 0x0 DUP1 MLOAD PUSH1 0x20 PUSH3 0x259F DUP4 CODECOPY DUP2 MLOAD SWAP2 MSTORE PUSH1 0x1F DUP5 ADD PUSH1 0x5 SHR DUP2 ADD PUSH1 0x20 DUP6 LT PUSH3 0x6CD JUMPI JUMPDEST SWAP1 DUP5 SWAP4 SWAP3 SWAP2 JUMPDEST PUSH1 0x1F DUP4 ADD PUSH1 0x5 SHR DUP3 ADD DUP2 LT PUSH3 0x6BD JUMPI POP POP PUSH3 0x387 JUMP JUMPDEST PUSH1 0x0 DUP2 SSTORE DUP6 SWAP5 POP PUSH1 0x1 ADD PUSH3 0x6A5 JUMP JUMPDEST POP DUP1 PUSH3 0x69F JUMP JUMPDEST SWAP2 PUSH1 0x7F AND SWAP2 PUSH3 0x371 JUMP JUMPDEST ADD MLOAD SWAP1 POP CODESIZE DUP1 PUSH3 0x336 JUMP JUMPDEST PUSH1 0xB PUSH1 0x0 SWAP1 DUP2 MSTORE SWAP4 POP PUSH32 0x175B7A638427703F0DBE7BB9BBF987A2551717B34E79F33B5B1008D1FA01DB9 SWAP2 SWAP1 JUMPDEST PUSH1 0x1F NOT DUP5 AND DUP6 LT PUSH3 0x75F JUMPI PUSH1 0x1 SWAP5 POP DUP4 PUSH1 0x1F NOT DUP2 AND LT PUSH3 0x745 JUMPI JUMPDEST POP POP POP DUP2 SHL ADD PUSH1 0xB SSTORE PUSH3 0x34C JUMP JUMPDEST ADD MLOAD PUSH1 0x0 NOT PUSH1 0xF8 DUP5 PUSH1 0x3 SHL AND SHR NOT AND SWAP1 SSTORE CODESIZE DUP1 DUP1 PUSH3 0x736 JUMP JUMPDEST DUP2 DUP2 ADD MLOAD DUP4 SSTORE PUSH1 0x20 SWAP5 DUP6 ADD SWAP5 PUSH1 0x1 SWAP1 SWAP4 ADD SWAP3 SWAP1 SWAP2 ADD SWAP1 PUSH3 0x719 JUMP JUMPDEST PUSH1 0xB PUSH1 0x0 MSTORE SWAP1 SWAP2 POP PUSH32 0x175B7A638427703F0DBE7BB9BBF987A2551717B34E79F33B5B1008D1FA01DB9 PUSH1 0x1F DUP5 ADD PUSH1 0x5 SHR DUP2 ADD PUSH1 0x20 DUP6 LT PUSH3 0x7E5 JUMPI JUMPDEST SWAP1 DUP5 SWAP4 SWAP3 SWAP2 JUMPDEST PUSH1 0x1F DUP4 ADD PUSH1 0x5 SHR DUP3 ADD DUP2 LT PUSH3 0x7D5 JUMPI POP POP PUSH3 0x31D JUMP JUMPDEST PUSH1 0x0 DUP2 SSTORE DUP6 SWAP5 POP PUSH1 0x1 ADD PUSH3 0x7BD JUMP JUMPDEST POP DUP1 PUSH3 0x7B7 JUMP JUMPDEST SWAP2 PUSH1 0x7F AND SWAP2 PUSH3 0x307 JUMP JUMPDEST PUSH1 0x40 MLOAD PUSH3 0x461BCD PUSH1 0xE5 SHL DUP2 MSTORE PUSH1 0x20 PUSH1 0x4 DUP3 ADD MSTORE PUSH1 0x14 PUSH1 0x24 DUP3 ADD MSTORE PUSH32 0x49434F206973207374696C6C2072756E6E696E67000000000000000000000000 PUSH1 0x44 DUP3 ADD MSTORE PUSH1 0x64 SWAP1 REVERT JUMPDEST PUSH1 0x40 MLOAD PUSH3 0x461BCD PUSH1 0xE5 SHL DUP2 MSTORE PUSH1 0x20 PUSH1 0x4 DUP3 ADD MSTORE PUSH1 0x27 PUSH1 0x24 DUP3 ADD MSTORE PUSH1 0x0 DUP1 MLOAD PUSH1 0x20 PUSH3 0x257F DUP4 CODECOPY DUP2 MLOAD SWAP2 MSTORE PUSH1 0x44 DUP3 ADD MSTORE PUSH7 0x736F667463617 PUSH1 0xCC SHL PUSH1 0x64 DUP3 ADD MSTORE PUSH1 0x84 SWAP1 REVERT JUMPDEST PUSH1 0x40 MLOAD PUSH3 0x461BCD PUSH1 0xE5 SHL DUP2 MSTORE PUSH1 0x20 PUSH1 0x4 DUP3 ADD MSTORE PUSH1 0x24 DUP1 DUP3 ADD MSTORE PUSH1 0x0 DUP1 MLOAD PUSH1 0x20 PUSH3 0x257F DUP4 CODECOPY DUP2 MLOAD SWAP2 MSTORE PUSH1 0x44 DUP3 ADD MSTORE PUSH4 0x7A65726F PUSH1 0xE0 SHL PUSH1 0x64 DUP3 ADD MSTORE PUSH1 0x84 SWAP1 REVERT JUMPDEST PUSH1 0x40 MLOAD PUSH3 0x461BCD PUSH1 0xE5 SHL DUP2 MSTORE PUSH1 0x20 PUSH1 0x4 DUP3 ADD MSTORE PUSH1 0x24 DUP1 DUP3 ADD MSTORE PUSH32 0x536F66746361702073686F756C64207365742067726561746572207468616E20 PUSH1 0x44 DUP3 ADD MSTORE PUSH4 0x7A65726F PUSH1 0xE0 SHL PUSH1 0x64 DUP3 ADD MSTORE PUSH1 0x84 SWAP1 REVERT JUMPDEST PUSH1 0x40 MLOAD PUSH3 0x461BCD PUSH1 0xE5 SHL DUP2 MSTORE PUSH1 0x20 PUSH1 0x4 DUP3 ADD MSTORE PUSH1 0x22 PUSH1 0x24 DUP3 ADD MSTORE PUSH32 0x496E73756666696369656E7420746F74616C20737570706C79206F6620746F6B PUSH1 0x44 DUP3 ADD MSTORE PUSH2 0x32B7 PUSH1 0xF1 SHL PUSH1 0x64 DUP3 ADD MSTORE PUSH1 0x84 SWAP1 REVERT JUMPDEST PUSH1 0x0 DUP1 REVERT JUMPDEST PUSH1 0x1F SWAP1 SWAP2 ADD PUSH1 0x1F NOT AND DUP2 ADD SWAP1 PUSH1 0x1 PUSH1 0x1 PUSH1 0x40 SHL SUB DUP3 GT SWAP1 DUP3 LT OR PUSH3 0x5D4 JUMPI PUSH1 0x40 MSTORE JUMP JUMPDEST PUSH1 0x0 JUMPDEST DUP4 DUP2 LT PUSH3 0x99F JUMPI POP POP PUSH1 0x0 SWAP2 ADD MSTORE JUMP JUMPDEST DUP2 DUP2 ADD MLOAD DUP4 DUP3 ADD MSTORE PUSH1 0x20 ADD PUSH3 0x98E JUMP JUMPDEST DUP2 PUSH1 0x1F DUP3 ADD SLT ISZERO PUSH3 0x962 JUMPI DUP1 MLOAD PUSH1 0x1 PUSH1 0x1 PUSH1 0x40 SHL SUB DUP2 GT PUSH3 0x5D4 JUMPI PUSH1 0x40 MLOAD SWAP3 PUSH3 0x9E7 PUSH1 0x1F DUP4 ADD PUSH1 0x1F NOT AND PUSH1 0x20 ADD DUP6 PUSH3 0x967 JUMP JUMPDEST DUP2 DUP5 MSTORE PUSH1 0x20 DUP3 DUP5 ADD ADD GT PUSH3 0x962 JUMPI PUSH3 0xA08 SWAP2 PUSH1 0x20 DUP1 DUP6 ADD SWAP2 ADD PUSH3 0x98B JUMP JUMPDEST SWAP1 JUMP JUMPDEST MLOAD SWAP1 PUSH1 0x1 PUSH1 0x1 PUSH1 0xA0 SHL SUB DUP3 AND DUP3 SUB PUSH3 0x962 JUMPI JUMP JUMPDEST DUP2 DUP2 MUL SWAP3 SWAP2 DUP2 ISZERO SWAP2 DUP5 DIV EQ OR ISZERO PUSH3 0xA34 JUMPI JUMP JUMPDEST PUSH4 0x4E487B71 PUSH1 0xE0 SHL PUSH1 0x0 MSTORE PUSH1 0x11 PUSH1 0x4 MSTORE PUSH1 0x24 PUSH1 0x0 REVERT JUMPDEST PUSH1 0x4D DUP2 GT PUSH3 0xA34 JUMPI PUSH1 0xA EXP SWAP1 JUMP JUMPDEST DUP2 ISZERO PUSH3 0xA64 JUMPI DIV SWAP1 JUMP JUMPDEST PUSH4 0x4E487B71 PUSH1 0xE0 SHL PUSH1 0x0 MSTORE PUSH1 0x12 PUSH1 0x4 MSTORE PUSH1 0x24 PUSH1 0x0 REVERT JUMPDEST ISZERO PUSH3 0xA82 JUMPI JUMP JUMPDEST PUSH1 0x40 MLOAD PUSH3 0x461BCD PUSH1 0xE5 SHL DUP2 MSTORE PUSH1 0x20 PUSH1 0x4 DUP3 ADD MSTORE PUSH1 0x1D PUSH1 0x24 DUP3 ADD MSTORE PUSH32 0x416D6F756E74206D7573742062652067726561746572207468616E2030000000 PUSH1 0x44 DUP3 ADD MSTORE PUSH1 0x64 SWAP1 REVERT JUMPDEST ISZERO PUSH3 0xACF JUMPI JUMP JUMPDEST PUSH1 0x40 MLOAD PUSH3 0x461BCD PUSH1 0xE5 SHL DUP2 MSTORE PUSH1 0x20 PUSH1 0x4 DUP3 ADD MSTORE PUSH1 0x10 PUSH1 0x24 DUP3 ADD MSTORE PUSH16 0x496E76616C6964204164647265737373 PUSH1 0x80 SHL PUSH1 0x44 DUP3 ADD MSTORE PUSH1 0x64 SWAP1 REVERT INVALID PUSH1 0x80 PUSH1 0x40 DUP2 DUP2 MSTORE PUSH1 0x4 SWAP2 DUP3 CALLDATASIZE LT ISZERO PUSH2 0x1F JUMPI JUMPDEST POP POP POP CALLDATASIZE ISZERO PUSH2 0x1D JUMPI STOP JUMPDEST STOP JUMPDEST PUSH1 0x0 SWAP3 DUP4 CALLDATALOAD PUSH1 0xE0 SHR SWAP2 DUP3 PUSH4 0x2D05D3F EQ PUSH2 0x1269 JUMPI POP DUP2 PUSH4 0x1069789B EQ PUSH2 0x1243 JUMPI DUP2 PUSH4 0x16450092 EQ PUSH2 0x121F JUMPI DUP2 PUSH4 0x1909D0D5 EQ PUSH2 0x11DB JUMPI DUP2 PUSH4 0x2131C68C EQ PUSH2 0x11B3 JUMPI DUP2 PUSH4 0x2CDC1C74 EQ PUSH2 0x118A JUMPI DUP2 PUSH4 0x2E518464 EQ PUSH2 0xB80 JUMPI DUP2 PUSH4 0x2E659D93 EQ PUSH2 0x1118 JUMPI DUP2 PUSH4 0x3197CBB6 EQ PUSH2 0x10F9 JUMPI DUP2 PUSH4 0x35AA0BEF EQ PUSH2 0xABB JUMPI DUP2 PUSH4 0x3C3610AA EQ PUSH2 0x10D5 JUMPI DUP2 PUSH4 0x3CB5D100 EQ PUSH2 0x10AA JUMPI DUP2 PUSH4 0x3D103B97 EQ PUSH2 0xBF9 JUMPI DUP2 PUSH4 0x3FEB5F2B EQ PUSH2 0xBB8 JUMPI DUP2 PUSH4 0x42E94C90 EQ PUSH2 0xB80 JUMPI DUP2 PUSH4 0x590E1AE3 EQ PUSH2 0xB3C JUMPI DUP2 PUSH4 0x5BED7EF7 EQ PUSH2 0xB04 JUMPI DUP2 PUSH4 0x5EE58EFC EQ PUSH2 0xAC0 JUMPI DUP2 PUSH4 0x60659A92 EQ PUSH2 0xABB JUMPI DUP2 PUSH4 0x6681B9FD EQ PUSH2 0xA9C JUMPI DUP2 PUSH4 0x69A72A6E EQ PUSH2 0xA5F JUMPI DUP2 PUSH4 0x6ADDB663 EQ PUSH2 0x877 JUMPI DUP2 PUSH4 0x6E6FB49F EQ PUSH2 0x77C JUMPI DUP2 PUSH4 0x78E97925 EQ PUSH2 0x75D JUMPI DUP2 PUSH4 0x8DA5CB5B EQ PUSH2 0x734 JUMPI DUP2 PUSH4 0x96B98862 EQ PUSH2 0x70C JUMPI DUP2 PUSH4 0xA7A38F0B EQ PUSH2 0x6A8 JUMPI DUP2 PUSH4 0xAA15EFC8 EQ PUSH2 0x58E JUMPI DUP2 PUSH4 0xAC6D7B66 EQ PUSH2 0x550 JUMPI DUP2 PUSH4 0xAF157C19 EQ PUSH2 0x4CE JUMPI DUP2 PUSH4 0xB071CBE6 EQ PUSH2 0x4AF JUMPI DUP2 PUSH4 0xB2F5A54C EQ PUSH2 0x41C JUMPI DUP2 PUSH4 0xC34FE1DD EQ PUSH2 0x3D8 JUMPI DUP2 PUSH4 0xD56B2889 EQ PUSH2 0x246 JUMPI POP DUP1 PUSH4 0xF89BE593 EQ PUSH2 0x228 JUMPI DUP1 PUSH4 0xF8B28422 EQ PUSH2 0x1F1 JUMPI PUSH4 0xFD572337 EQ PUSH2 0x1C6 JUMPI DUP1 PUSH2 0x12 JUMP JUMPDEST CALLVALUE PUSH2 0x1ED JUMPI DUP2 PUSH1 0x3 NOT CALLDATASIZE ADD SLT PUSH2 0x1ED JUMPI PUSH1 0x5 SLOAD SWAP1 MLOAD PUSH1 0x1 PUSH1 0x1 PUSH1 0xA0 SHL SUB SWAP1 SWAP2 AND DUP2 MSTORE PUSH1 0x20 SWAP1 RETURN JUMPDEST POP DUP1 REVERT JUMPDEST POP CALLVALUE PUSH2 0x1ED JUMPI PUSH1 0x20 CALLDATASIZE PUSH1 0x3 NOT ADD SLT PUSH2 0x1ED JUMPI PUSH1 0x20 SWAP2 DUP2 SWAP1 PUSH1 0x1 PUSH1 0x1 PUSH1 0xA0 SHL SUB PUSH2 0x218 PUSH2 0x128E JUMP JUMPDEST AND DUP2 MSTORE PUSH1 0xE DUP5 MSTORE KECCAK256 SLOAD SWAP1 MLOAD SWAP1 DUP2 MSTORE RETURN JUMPDEST POP CALLVALUE PUSH2 0x1ED JUMPI DUP2 PUSH1 0x3 NOT CALLDATASIZE ADD SLT PUSH2 0x1ED JUMPI PUSH1 0x20 SWAP1 PUSH1 0x8 SLOAD SWAP1 MLOAD SWAP1 DUP2 MSTORE RETURN JUMPDEST SWAP1 POP DUP3 PUSH1 0x3 NOT CALLDATASIZE ADD SLT PUSH2 0x3D4 JUMPI PUSH2 0x25B PUSH2 0x152E JUMP JUMPDEST PUSH1 0x7 SLOAD TIMESTAMP GT ISZERO PUSH2 0x39D JUMPI POP PUSH1 0xA SLOAD PUSH1 0x8 SLOAD GT PUSH2 0x281 JUMPI POP PUSH2 0x27A PUSH2 0x1591 JUMP JUMPDEST PUSH1 0x1 DUP2 SSTORE DUP1 RETURN JUMPDEST DUP2 JUMPDEST PUSH1 0xC SLOAD DUP2 LT ISZERO PUSH2 0x300 JUMPI DUP3 PUSH2 0x297 DUP3 PUSH2 0x12FD JUMP JUMPDEST SWAP1 SLOAD PUSH1 0x3 SWAP2 SWAP1 SWAP2 SHL SHR PUSH1 0x1 PUSH1 0x1 PUSH1 0xA0 SHL SUB AND DUP1 DUP3 MSTORE PUSH1 0xE PUSH1 0x20 MSTORE DUP4 DUP3 KECCAK256 DUP1 SLOAD SWAP1 DUP4 SWAP1 SSTORE SWAP1 DUP2 ISZERO DUP1 ISZERO PUSH2 0x2D0 JUMPI JUMPDEST POP POP POP POP PUSH1 0x1 ADD PUSH2 0x283 JUMP JUMPDEST DUP4 SWAP3 DUP4 SWAP3 DUP4 SWAP3 DUP4 SWAP1 PUSH2 0x2F7 JUMPI JUMPDEST CALL ISZERO PUSH2 0x2EC JUMPI DUP3 CODESIZE DUP1 DUP1 PUSH2 0x2C4 JUMP JUMPDEST POP MLOAD SWAP1 RETURNDATASIZE SWAP1 DUP3 RETURNDATACOPY RETURNDATASIZE SWAP1 REVERT JUMPDEST POP PUSH2 0x8FC PUSH2 0x2DD JUMP JUMPDEST POP PUSH1 0x60 PUSH32 0xFC1B2A311C2A7DE088D45026BED67AF97341E100FD9069DE4468ED5C9B4E1E42 SWAP2 PUSH2 0x362 PUSH2 0x330 PUSH2 0x148F JUMP JUMPDEST PUSH1 0x3 SLOAD PUSH1 0x1 PUSH1 0x1 PUSH1 0xA0 SHL SUB AND PUSH32 0x0 PUSH2 0x190C JUMP JUMPDEST PUSH1 0x1 PUSH1 0x18 SLOAD PUSH2 0x100 DUP3 PUSH1 0xA8 SHL SUB CALLER PUSH1 0x8 SHL AND SWAP1 DUP3 DUP1 PUSH1 0xA8 SHL SUB NOT AND OR OR PUSH1 0x18 SSTORE TIMESTAMP PUSH1 0x19 SSTORE DUP1 MLOAD SWAP1 ADDRESS DUP3 MSTORE CALLER PUSH1 0x20 DUP4 ADD MSTORE TIMESTAMP SWAP1 DUP3 ADD MSTORE LOG1 PUSH2 0x27A JUMP JUMPDEST PUSH1 0x20 PUSH1 0x64 SWAP3 MLOAD SWAP2 PUSH3 0x461BCD PUSH1 0xE5 SHL DUP4 MSTORE DUP3 ADD MSTORE PUSH1 0x12 PUSH1 0x24 DUP3 ADD MSTORE PUSH18 0x24A1A7903737BA1032B73232B2103CB2BA17 PUSH1 0x71 SHL PUSH1 0x44 DUP3 ADD MSTORE REVERT JUMPDEST DUP3 DUP1 REVERT JUMPDEST POP POP CALLVALUE PUSH2 0x1ED JUMPI DUP2 PUSH1 0x3 NOT CALLDATASIZE ADD SLT PUSH2 0x1ED JUMPI MLOAD PUSH32 0x0 PUSH1 0x1 PUSH1 0x1 PUSH1 0xA0 SHL SUB AND DUP2 MSTORE PUSH1 0x20 SWAP1 RETURN JUMPDEST DUP3 DUP5 CALLVALUE PUSH2 0x4AC JUMPI DUP1 PUSH1 0x3 NOT CALLDATASIZE ADD SLT PUSH2 0x4AC JUMPI DUP2 MLOAD PUSH1 0xC DUP1 SLOAD DUP1 DUP4 MSTORE SWAP1 DUP4 MSTORE PUSH1 0x20 DUP1 DUP4 ADD SWAP5 SWAP3 SWAP4 PUSH32 0xDF6966C971051C3D54EC59162606531493A51404A002842F56009D7E5CF4A8C7 SWAP3 SWAP2 JUMPDEST DUP3 DUP3 LT PUSH2 0x48C JUMPI PUSH2 0x488 DUP7 DUP7 PUSH2 0x47E DUP3 DUP12 SUB DUP4 PUSH2 0x134A JUMP JUMPDEST MLOAD SWAP2 DUP3 SWAP2 DUP3 PUSH2 0x13CB JUMP JUMPDEST SUB SWAP1 RETURN JUMPDEST DUP4 SLOAD PUSH1 0x1 PUSH1 0x1 PUSH1 0xA0 SHL SUB AND DUP8 MSTORE SWAP6 DUP7 ADD SWAP6 PUSH1 0x1 SWAP4 DUP5 ADD SWAP4 SWAP1 SWAP2 ADD SWAP1 PUSH2 0x466 JUMP JUMPDEST DUP1 REVERT JUMPDEST POP POP CALLVALUE PUSH2 0x1ED JUMPI DUP2 PUSH1 0x3 NOT CALLDATASIZE ADD SLT PUSH2 0x1ED JUMPI PUSH1 0x20 SWAP1 PUSH1 0x9 SLOAD SWAP1 MLOAD SWAP1 DUP2 MSTORE RETURN JUMPDEST DUP3 DUP5 CALLVALUE PUSH2 0x4AC JUMPI DUP1 PUSH1 0x3 NOT CALLDATASIZE ADD SLT PUSH2 0x4AC JUMPI DUP2 MLOAD PUSH1 0xD DUP1 SLOAD DUP1 DUP4 MSTORE SWAP1 DUP4 MSTORE PUSH1 0x20 DUP1 DUP4 ADD SWAP5 SWAP3 SWAP4 PUSH32 0xD7B6990105719101DABEB77144F2A3385C8033ACD3AF97E9423A695E81AD1EB5 SWAP3 SWAP2 JUMPDEST DUP3 DUP3 LT PUSH2 0x530 JUMPI PUSH2 0x488 DUP7 DUP7 PUSH2 0x47E DUP3 DUP12 SUB DUP4 PUSH2 0x134A JUMP JUMPDEST DUP4 SLOAD PUSH1 0x1 PUSH1 0x1 PUSH1 0xA0 SHL SUB AND DUP8 MSTORE SWAP6 DUP7 ADD SWAP6 PUSH1 0x1 SWAP4 DUP5 ADD SWAP4 SWAP1 SWAP2 ADD SWAP1 PUSH2 0x518 JUMP JUMPDEST DUP3 DUP5 CALLVALUE PUSH2 0x4AC JUMPI PUSH1 0x20 CALLDATASIZE PUSH1 0x3 NOT ADD SLT PUSH2 0x4AC JUMPI POP PUSH2 0x587 PUSH2 0x576 PUSH1 0x20 SWAP4 CALLDATALOAD PUSH1 0x13 SLOAD PUSH2 0x1410 JUMP JUMPDEST PUSH2 0x581 PUSH1 0x12 SLOAD PUSH2 0x1439 JUMP JUMPDEST SWAP1 PUSH2 0x1447 JUMP JUMPDEST SWAP1 MLOAD SWAP1 DUP2 MSTORE RETURN JUMPDEST DUP4 SWAP2 POP CALLVALUE PUSH2 0x1ED JUMPI DUP2 PUSH1 0x3 NOT CALLDATASIZE ADD SLT PUSH2 0x1ED JUMPI PUSH1 0x1A SLOAD PUSH8 0xFFFFFFFFFFFFFFFF DUP2 GT PUSH2 0x695 JUMPI SWAP2 PUSH1 0x20 SWAP3 DUP5 MLOAD SWAP1 PUSH2 0x5C9 DUP6 DUP3 PUSH1 0x5 SHL ADD DUP4 PUSH2 0x134A JUMP JUMPDEST DUP1 DUP3 MSTORE DUP5 DUP3 ADD SWAP4 DUP5 PUSH1 0x1A DUP6 MSTORE DUP7 DUP6 KECCAK256 DUP6 SWAP2 JUMPDEST DUP5 DUP4 LT PUSH2 0x646 JUMPI POP POP POP POP POP DUP5 MLOAD SWAP4 DUP1 DUP6 ADD SWAP2 DUP2 DUP7 MSTORE MLOAD DUP1 SWAP3 MSTORE DUP6 DUP6 ADD SWAP4 SWAP3 JUMPDEST DUP3 DUP2 LT PUSH2 0x608 JUMPI DUP6 DUP6 SUB DUP7 RETURN JUMPDEST DUP4 MLOAD DUP1 MLOAD PUSH1 0x1 PUSH1 0x1 PUSH1 0xA0 SHL SUB SWAP1 DUP2 AND DUP8 MSTORE DUP2 DUP5 ADD MLOAD AND DUP7 DUP5 ADD MSTORE DUP8 DUP2 ADD MLOAD DUP9 DUP8 ADD MSTORE PUSH1 0x60 SWAP1 DUP2 ADD MLOAD SWAP1 DUP7 ADD MSTORE PUSH1 0x80 SWAP1 SWAP5 ADD SWAP4 SWAP3 DUP2 ADD SWAP3 PUSH1 0x1 ADD PUSH2 0x5FB JUMP JUMPDEST DUP4 DUP10 PUSH1 0x1 SWAP3 DUP13 SWAP12 SWAP9 SWAP10 SWAP12 MLOAD PUSH2 0x65A DUP2 PUSH2 0x1318 JUMP JUMPDEST DUP5 DUP1 PUSH1 0xA0 SHL SUB DUP1 DUP8 SLOAD AND DUP3 MSTORE DUP6 DUP8 ADD SLOAD AND DUP4 DUP3 ADD MSTORE DUP14 PUSH1 0x2 DUP8 ADD SLOAD SWAP1 DUP3 ADD MSTORE PUSH1 0x3 DUP7 ADD SLOAD PUSH1 0x60 DUP3 ADD MSTORE DUP2 MSTORE ADD SWAP3 ADD SWAP3 ADD SWAP2 SWAP1 SWAP8 SWAP6 SWAP5 SWAP8 PUSH2 0x5DB JUMP JUMPDEST PUSH4 0x4E487B71 PUSH1 0xE0 SHL DUP4 MSTORE PUSH1 0x41 DUP3 MSTORE PUSH1 0x24 DUP4 REVERT JUMPDEST SWAP1 POP CALLVALUE PUSH2 0x3D4 JUMPI PUSH1 0x20 CALLDATASIZE PUSH1 0x3 NOT ADD SLT PUSH2 0x3D4 JUMPI CALLDATALOAD SWAP2 PUSH1 0x1A SLOAD DUP4 LT ISZERO PUSH2 0x4AC JUMPI POP PUSH2 0x6D3 PUSH1 0x80 SWAP3 PUSH2 0x13AC JUMP JUMPDEST POP DUP1 SLOAD PUSH1 0x1 DUP3 ADD SLOAD PUSH1 0x2 DUP4 ADD SLOAD PUSH1 0x3 SWAP1 SWAP4 ADD SLOAD DUP5 MLOAD PUSH1 0x1 PUSH1 0x1 PUSH1 0xA0 SHL SUB SWAP4 DUP5 AND DUP2 MSTORE SWAP2 SWAP1 SWAP3 AND PUSH1 0x20 DUP3 ADD MSTORE SWAP3 DUP4 ADD SWAP2 SWAP1 SWAP2 MSTORE PUSH1 0x60 DUP3 ADD MSTORE RETURN JUMPDEST POP POP CALLVALUE PUSH2 0x1ED JUMPI PUSH1 0x20 CALLDATASIZE PUSH1 0x3 NOT ADD SLT PUSH2 0x1ED JUMPI PUSH1 0x20 SWAP2 DUP2 SWAP1 PUSH1 0x1 PUSH1 0x1 PUSH1 0xA0 SHL SUB PUSH2 0x218 PUSH2 0x128E JUMP JUMPDEST POP POP CALLVALUE PUSH2 0x1ED JUMPI DUP2 PUSH1 0x3 NOT CALLDATASIZE ADD SLT PUSH2 0x1ED JUMPI PUSH1 0x2 SLOAD SWAP1 MLOAD PUSH1 0x1 PUSH1 0x1 PUSH1 0xA0 SHL SUB SWAP1 SWAP2 AND DUP2 MSTORE PUSH1 0x20 SWAP1 RETURN JUMPDEST POP POP CALLVALUE PUSH2 0x1ED JUMPI DUP2 PUSH1 0x3 NOT CALLDATASIZE ADD SLT PUSH2 0x1ED JUMPI PUSH1 0x20 SWAP1 PUSH1 0x6 SLOAD SWAP1 MLOAD SWAP1 DUP2 MSTORE RETURN JUMPDEST DUP3 DUP5 CALLVALUE PUSH2 0x4AC JUMPI DUP1 PUSH1 0x3 NOT CALLDATASIZE ADD SLT PUSH2 0x4AC JUMPI DUP2 MLOAD SWAP2 DUP2 PUSH1 0xB SLOAD SWAP3 PUSH1 0x1 DUP5 PUSH1 0x1 SHR SWAP2 PUSH1 0x1 DUP7 AND SWAP6 DUP7 ISZERO PUSH2 0x86D JUMPI JUMPDEST PUSH1 0x20 SWAP7 DUP8 DUP6 LT DUP2 EQ PUSH2 0x85A JUMPI DUP9 SWAP10 POP SWAP7 DUP9 SWAP7 SWAP8 DUP6 DUP3 SWAP11 MSTORE SWAP2 DUP3 PUSH1 0x0 EQ PUSH2 0x833 JUMPI POP POP PUSH1 0x1 EQ PUSH2 0x7F5 JUMPI JUMPDEST POP POP POP PUSH2 0x488 SWAP3 SWAP2 PUSH2 0x7E6 SWAP2 SUB DUP6 PUSH2 0x134A JUMP JUMPDEST MLOAD SWAP3 DUP3 DUP5 SWAP4 DUP5 MSTORE DUP4 ADD SWAP1 PUSH2 0x136C JUMP JUMPDEST SWAP2 SWAP1 DUP7 SWAP4 POP PUSH1 0xB DUP4 MSTORE DUP4 DUP4 KECCAK256 JUMPDEST DUP3 DUP5 LT PUSH2 0x81B JUMPI POP POP POP DUP3 ADD ADD DUP2 PUSH2 0x7E6 PUSH2 0x488 PUSH2 0x7D3 JUMP JUMPDEST DUP1 SLOAD DUP5 DUP11 ADD DUP7 ADD MSTORE DUP9 SWAP6 POP DUP8 SWAP5 SWAP1 SWAP4 ADD SWAP3 DUP2 ADD PUSH2 0x802 JUMP JUMPDEST PUSH1 0xFF NOT AND DUP8 DUP3 ADD MSTORE SWAP4 ISZERO ISZERO PUSH1 0x5 SHL DUP7 ADD SWAP1 SWAP4 ADD SWAP4 POP DUP5 SWAP3 POP PUSH2 0x7E6 SWAP2 POP PUSH2 0x488 SWAP1 POP PUSH2 0x7D3 JUMP JUMPDEST PUSH4 0x4E487B71 PUSH1 0xE0 SHL DUP4 MSTORE PUSH1 0x22 DUP11 MSTORE PUSH1 0x24 DUP4 REVERT JUMPDEST SWAP3 PUSH1 0x7F AND SWAP3 PUSH2 0x7A9 JUMP JUMPDEST DUP4 DUP4 CALLVALUE PUSH2 0x1ED JUMPI DUP2 PUSH1 0x3 NOT CALLDATASIZE ADD SLT PUSH2 0x1ED JUMPI DUP1 MLOAD SWAP2 DUP1 PUSH1 0x10 SLOAD SWAP5 PUSH1 0x1 SWAP3 DUP7 DUP5 SHR DUP5 DUP9 AND SWAP8 DUP9 ISZERO PUSH2 0xA55 JUMPI JUMPDEST PUSH1 0x20 SWAP9 DUP10 DUP4 LT DUP2 EQ PUSH2 0xA42 JUMPI SWAP2 DUP10 SWAP4 SWAP2 DUP10 SWAP4 DUP3 DUP6 MSTORE SWAP1 DUP2 PUSH1 0x0 EQ PUSH2 0xA24 JUMPI POP PUSH1 0x1 EQ PUSH2 0x9E7 JUMPI JUMPDEST POP PUSH2 0x8D6 SWAP3 POP SUB DUP7 PUSH2 0x134A JUMP JUMPDEST DUP4 MLOAD SWAP3 DUP3 PUSH1 0x11 SLOAD DUP1 DUP4 SHR SWAP4 DUP4 DUP3 AND SWAP1 DUP2 ISZERO PUSH2 0x9DD JUMPI JUMPDEST DUP11 DUP7 LT DUP3 EQ PUSH2 0x9CA JUMPI POP DUP5 DUP8 MSTORE SWAP1 DUP2 ISZERO PUSH2 0x9A8 JUMPI POP PUSH1 0x1 EQ PUSH2 0x96D JUMPI JUMPDEST POP POP POP SWAP4 PUSH2 0x91C DUP3 PUSH2 0x949 SWAP7 SUB DUP4 PUSH2 0x134A JUMP JUMPDEST PUSH1 0x12 SLOAD PUSH1 0x13 SLOAD SWAP1 PUSH2 0x956 PUSH1 0x14 SLOAD SWAP4 PUSH1 0x1 DUP1 PUSH1 0xA0 SHL SUB PUSH1 0x15 SLOAD AND SWAP6 DUP8 MLOAD SWAP10 DUP11 SWAP10 PUSH1 0xC0 DUP12 MSTORE PUSH1 0xC0 DUP12 ADD SWAP1 PUSH2 0x136C JUMP JUMPDEST SWAP2 DUP10 DUP4 SUB SWAP1 DUP11 ADD MSTORE PUSH2 0x136C JUMP JUMPDEST SWAP5 DUP7 ADD MSTORE PUSH1 0x60 DUP6 ADD MSTORE PUSH1 0x80 DUP5 ADD MSTORE PUSH1 0xA0 DUP4 ADD MSTORE SUB SWAP1 RETURN JUMPDEST SWAP7 SWAP3 POP PUSH1 0x11 DUP8 MSTORE DUP3 DUP8 KECCAK256 JUMPDEST DUP3 DUP9 LT PUSH2 0x995 JUMPI POP POP POP PUSH2 0x91C DUP3 DUP3 PUSH2 0x949 SWAP8 DUP3 ADD ADD SWAP3 SWAP7 PUSH2 0x909 JUMP JUMPDEST DUP1 SLOAD DUP6 DUP10 ADD DUP6 ADD MSTORE SWAP7 DUP4 ADD SWAP7 DUP2 ADD PUSH2 0x978 JUMP JUMPDEST PUSH1 0xFF NOT AND DUP7 DUP11 ADD MSTORE POP POP POP ISZERO ISZERO PUSH1 0x5 SHL DUP3 ADD DUP6 ADD SWAP1 POP PUSH2 0x91C DUP3 PUSH2 0x949 PUSH2 0x909 JUMP JUMPDEST PUSH4 0x4E487B71 PUSH1 0xE0 SHL DUP5 MSTORE PUSH1 0x22 SWAP1 MSTORE PUSH1 0x24 DUP4 REVERT JUMPDEST SWAP5 PUSH1 0x7F AND SWAP5 PUSH2 0x8EC JUMP JUMPDEST PUSH1 0x10 DUP7 MSTORE DUP4 DUP7 KECCAK256 DUP7 SWAP3 POP DUP8 SWAP1 JUMPDEST DUP3 DUP5 LT PUSH2 0xA0D JUMPI POP POP POP SWAP2 PUSH2 0x8D6 SWAP3 DUP3 ADD ADD DUP9 SWAP3 PUSH2 0x8C9 JUMP JUMPDEST DUP1 SLOAD DUP12 DUP6 ADD DUP8 ADD MSTORE DUP11 SWAP5 POP SWAP3 DUP6 ADD SWAP3 DUP9 SWAP2 ADD PUSH2 0x9F4 JUMP JUMPDEST PUSH1 0xFF NOT AND DUP5 DUP7 ADD MSTORE POP DUP10 SWAP4 SWAP1 ISZERO ISZERO PUSH1 0x5 SHL DUP4 ADD ADD SWAP1 POP PUSH2 0x8D6 PUSH2 0x8C9 JUMP JUMPDEST PUSH4 0x4E487B71 PUSH1 0xE0 SHL DUP7 MSTORE PUSH1 0x22 DUP6 MSTORE PUSH1 0x24 DUP7 REVERT JUMPDEST SWAP1 PUSH1 0x7F AND SWAP1 PUSH2 0x8A2 JUMP JUMPDEST POP POP CALLVALUE PUSH2 0x1ED JUMPI DUP2 PUSH1 0x3 NOT CALLDATASIZE ADD SLT PUSH2 0x1ED JUMPI PUSH1 0x20 SWAP1 PUSH8 0xDE0B6B3A7640000 PUSH2 0xA94 PUSH1 0x13 SLOAD PUSH2 0xA8E PUSH1 0x12 SLOAD PUSH2 0x1439 JUMP JUMPDEST SWAP1 PUSH2 0x1410 JUMP JUMPDEST DIV SWAP1 MLOAD SWAP1 DUP2 MSTORE RETURN JUMPDEST POP POP CALLVALUE PUSH2 0x1ED JUMPI DUP2 PUSH1 0x3 NOT CALLDATASIZE ADD SLT PUSH2 0x1ED JUMPI PUSH1 0x20 SWAP1 PUSH1 0xA SLOAD SWAP1 MLOAD SWAP1 DUP2 MSTORE RETURN JUMPDEST PUSH2 0x12A9 JUMP JUMPDEST DUP3 DUP5 CALLVALUE PUSH2 0x4AC JUMPI DUP1 PUSH1 0x3 NOT CALLDATASIZE ADD SLT PUSH2 0x4AC JUMPI POP PUSH1 0x16 SLOAD PUSH1 0x17 SLOAD SWAP2 MLOAD PUSH1 0xFF DUP3 AND ISZERO ISZERO DUP2 MSTORE PUSH1 0x8 SWAP2 SWAP1 SWAP2 SHR PUSH1 0x1 PUSH1 0x1 PUSH1 0xA0 SHL SUB AND PUSH1 0x20 DUP3 ADD MSTORE PUSH1 0x40 DUP2 ADD SWAP2 SWAP1 SWAP2 MSTORE PUSH1 0x60 SWAP1 RETURN JUMPDEST DUP3 DUP5 CALLVALUE PUSH2 0x4AC JUMPI PUSH1 0x20 CALLDATASIZE PUSH1 0x3 NOT ADD SLT PUSH2 0x4AC JUMPI POP PUSH2 0x587 PUSH2 0xB33 PUSH1 0x20 SWAP4 PUSH2 0xB2C PUSH1 0x12 SLOAD PUSH2 0x1439 JUMP JUMPDEST SWAP1 CALLDATALOAD PUSH2 0x1410 JUMP JUMPDEST PUSH1 0x13 SLOAD SWAP1 PUSH2 0x1447 JUMP JUMPDEST DUP3 DUP5 CALLVALUE PUSH2 0x4AC JUMPI DUP1 PUSH1 0x3 NOT CALLDATASIZE ADD SLT PUSH2 0x4AC JUMPI POP PUSH1 0x18 SLOAD PUSH1 0x19 SLOAD SWAP2 MLOAD PUSH1 0xFF DUP3 AND ISZERO ISZERO DUP2 MSTORE PUSH1 0x8 SWAP2 SWAP1 SWAP2 SHR PUSH1 0x1 PUSH1 0x1 PUSH1 0xA0 SHL SUB AND PUSH1 0x20 DUP3 ADD MSTORE PUSH1 0x40 DUP2 ADD SWAP2 SWAP1 SWAP2 MSTORE PUSH1 0x60 SWAP1 RETURN JUMPDEST POP POP CALLVALUE PUSH2 0x1ED JUMPI PUSH1 0x20 CALLDATASIZE PUSH1 0x3 NOT ADD SLT PUSH2 0x1ED JUMPI PUSH1 0x20 SWAP2 DUP2 SWAP1 PUSH1 0x1 PUSH1 0x1 PUSH1 0xA0 SHL SUB PUSH2 0xBA8 PUSH2 0x128E JUMP JUMPDEST AND DUP2 MSTORE PUSH1 0xF DUP5 MSTORE KECCAK256 SLOAD SWAP1 MLOAD SWAP1 DUP2 MSTORE RETURN JUMPDEST SWAP1 POP CALLVALUE PUSH2 0x3D4 JUMPI PUSH1 0x20 CALLDATASIZE PUSH1 0x3 NOT ADD SLT PUSH2 0x3D4 JUMPI CALLDATALOAD SWAP2 PUSH1 0xC SLOAD DUP4 LT ISZERO PUSH2 0x4AC JUMPI POP PUSH2 0xBE3 PUSH1 0x20 SWAP3 PUSH2 0x12FD JUMP JUMPDEST SWAP1 SLOAD SWAP2 MLOAD SWAP2 PUSH1 0x1 DUP1 PUSH1 0xA0 SHL SUB SWAP2 PUSH1 0x3 SHL SHR AND DUP2 MSTORE RETURN JUMPDEST SWAP1 POP DUP2 PUSH1 0x3 NOT CALLDATASIZE ADD SLT PUSH2 0x3D4 JUMPI PUSH1 0x1 PUSH1 0x1 PUSH1 0xA0 SHL SUB SWAP2 DUP2 CALLDATALOAD SWAP2 PUSH1 0x24 DUP1 CALLDATALOAD DUP6 DUP2 AND SWAP4 SWAP3 SWAP2 SWAP1 DUP5 SWAP1 SUB PUSH2 0x10A6 JUMPI PUSH2 0xC2C PUSH2 0x152E JUMP JUMPDEST PUSH2 0xC34 PUSH2 0x148F JUMP JUMPDEST PUSH2 0xC41 PUSH1 0x13 SLOAD SWAP2 DUP3 PUSH2 0x1410 JUMP JUMPDEST SWAP1 PUSH2 0xC52 PUSH1 0x12 SLOAD SWAP3 PUSH2 0x581 DUP5 PUSH2 0x1439 JUMP JUMPDEST PUSH1 0x9 SLOAD LT ISZERO PUSH2 0x1052 JUMPI PUSH2 0xC7E SWAP1 PUSH2 0xC79 PUSH2 0xC73 PUSH2 0xC6D PUSH2 0x148F JUMP JUMPDEST SWAP5 PUSH2 0x1439 JUMP JUMPDEST DUP10 PUSH2 0x1410 JUMP JUMPDEST PUSH2 0x1447 JUMP JUMPDEST GT PUSH2 0x1011 JUMPI PUSH1 0x7 SLOAD TIMESTAMP LT ISZERO PUSH2 0xFE1 JUMPI DUP5 ISZERO PUSH2 0xFAF JUMPI DUP5 CALLVALUE LT PUSH2 0xF74 JUMPI DUP4 ISZERO PUSH2 0xF33 JUMPI CALLER DUP8 MSTORE PUSH1 0x20 SWAP6 PUSH1 0xE DUP8 MSTORE DUP4 DUP9 KECCAK256 SLOAD ISZERO PUSH2 0xEFD JUMPI JUMPDEST CALLER DUP9 MSTORE PUSH1 0xE DUP8 MSTORE DUP4 DUP9 KECCAK256 PUSH2 0xCC9 DUP8 DUP3 SLOAD PUSH2 0x1521 JUMP JUMPDEST SWAP1 SSTORE DUP5 DUP9 MSTORE PUSH1 0xF DUP8 MSTORE DUP4 DUP9 KECCAK256 SLOAD ISZERO PUSH2 0xEB5 JUMPI JUMPDEST DUP5 DUP9 MSTORE PUSH1 0xF DUP8 MSTORE DUP4 DUP9 KECCAK256 PUSH2 0xCF1 DUP8 DUP3 SLOAD PUSH2 0x1521 JUMP JUMPDEST SWAP1 SSTORE DUP6 CALLVALUE SUB CALLVALUE DUP2 GT PUSH2 0xEA3 JUMPI DUP9 SWAP1 DUP8 CALLVALUE EQ SWAP1 DUP2 ISZERO PUSH2 0xE73 JUMPI JUMPDEST POP POP POP DUP4 MLOAD SWAP1 PUSH2 0xD19 DUP3 PUSH2 0x1318 JUMP JUMPDEST CALLER DUP3 MSTORE DUP8 DUP3 ADD DUP7 DUP2 MSTORE DUP6 DUP4 ADD SWAP1 DUP9 DUP3 MSTORE PUSH1 0x60 DUP5 ADD SWAP3 TIMESTAMP DUP5 MSTORE PUSH1 0x1A SLOAD PUSH1 0x1 PUSH1 0x40 SHL DUP2 LT ISZERO PUSH2 0xE61 JUMPI DUP1 PUSH1 0x1 PUSH2 0xD50 SWAP3 ADD PUSH1 0x1A SSTORE PUSH2 0x13AC JUMP JUMPDEST SWAP6 SWAP1 SWAP6 PUSH2 0xE50 JUMPI MLOAD DUP6 SLOAD PUSH1 0x1 PUSH1 0x1 PUSH1 0xA0 SHL SUB NOT SWAP1 DUP2 AND SWAP2 DUP4 AND SWAP2 SWAP1 SWAP2 OR DUP7 SSTORE SWAP2 MLOAD PUSH1 0x1 DUP7 ADD DUP1 SLOAD SWAP1 SWAP4 AND SWAP2 AND OR SWAP1 SSTORE MLOAD PUSH1 0x2 DUP4 ADD SSTORE MLOAD PUSH1 0x3 SWAP2 SWAP1 SWAP2 ADD SSTORE PUSH1 0xA SLOAD PUSH2 0xD9B SWAP1 DUP7 SWAP1 PUSH2 0x1521 JUMP JUMPDEST DUP1 PUSH1 0xA SSTORE PUSH1 0x9 SLOAD GT ISZERO PUSH2 0xDF2 JUMPI JUMPDEST DUP7 PUSH32 0x842768B94B018E5AA48731EE69F4550EB378C75290E54507B23E4272EF1ED4C9 PUSH1 0xA0 DUP9 DUP9 DUP9 DUP9 DUP1 MLOAD SWAP4 ADDRESS DUP6 MSTORE CALLER SWAP1 DUP6 ADD MSTORE DUP4 ADD MSTORE PUSH1 0x60 DUP3 ADD MSTORE TIMESTAMP PUSH1 0x80 DUP3 ADD MSTORE LOG1 PUSH1 0x1 DUP2 SSTORE DUP1 RETURN JUMPDEST PUSH1 0x0 NOT TIMESTAMP ADD SWAP2 TIMESTAMP DUP4 GT PUSH2 0xE3F JUMPI POP POP SWAP2 PUSH1 0xA0 SWAP4 SWAP2 PUSH32 0x842768B94B018E5AA48731EE69F4550EB378C75290E54507B23E4272EF1ED4C9 SWAP6 SWAP4 PUSH1 0x7 SSTORE PUSH2 0xE34 PUSH2 0x1591 JUMP JUMPDEST SWAP2 SWAP4 DUP2 SWAP4 SWAP6 POP PUSH2 0xDA9 JUMP JUMPDEST PUSH4 0x4E487B71 PUSH1 0xE0 SHL DUP9 MSTORE PUSH1 0x11 SWAP1 MSTORE DUP7 REVERT JUMPDEST PUSH4 0x4E487B71 PUSH1 0xE0 SHL DUP14 MSTORE DUP13 DUP9 MSTORE DUP7 DUP14 REVERT JUMPDEST PUSH4 0x4E487B71 PUSH1 0xE0 SHL DUP14 MSTORE PUSH1 0x41 DUP9 MSTORE DUP7 DUP14 REVERT JUMPDEST DUP3 DUP1 SWAP3 SWAP2 DUP2 SWAP3 DUP3 SWAP1 PUSH2 0xE9A JUMPI JUMPDEST CALLER SWAP1 CALL ISZERO PUSH2 0xE90 JUMPI DUP8 CODESIZE DUP1 PUSH2 0xD0A JUMP JUMPDEST DUP4 MLOAD RETURNDATASIZE DUP10 DUP3 RETURNDATACOPY RETURNDATASIZE SWAP1 REVERT JUMPDEST POP PUSH2 0x8FC PUSH2 0xE80 JUMP JUMPDEST PUSH4 0x4E487B71 PUSH1 0xE0 SHL DUP10 MSTORE PUSH1 0x11 DUP5 MSTORE DUP3 DUP10 REVERT JUMPDEST PUSH1 0xD SLOAD PUSH1 0x1 PUSH1 0x40 SHL DUP2 LT ISZERO PUSH2 0xEEB JUMPI DUP1 PUSH1 0x1 PUSH2 0xED4 SWAP3 ADD PUSH1 0xD SSTORE PUSH2 0x12CC JUMP JUMPDEST DUP2 SLOAD SWAP1 PUSH1 0x3 SHL SWAP1 DUP4 DUP9 DUP4 SHL SWAP3 SHL NOT AND OR SWAP1 SSTORE PUSH2 0xCDC JUMP JUMPDEST PUSH4 0x4E487B71 PUSH1 0xE0 SHL DUP10 MSTORE PUSH1 0x41 DUP5 MSTORE DUP3 DUP10 REVERT JUMPDEST PUSH1 0xC SLOAD PUSH1 0x1 PUSH1 0x40 SHL DUP2 LT ISZERO PUSH2 0xEEB JUMPI DUP1 PUSH1 0x1 PUSH2 0xF1C SWAP3 ADD PUSH1 0xC SSTORE PUSH2 0x12FD JUMP JUMPDEST DUP2 SLOAD SWAP1 PUSH1 0x3 SHL SWAP1 DUP4 CALLER DUP4 SHL SWAP3 SHL NOT AND OR SWAP1 SSTORE PUSH2 0xCB4 JUMP JUMPDEST PUSH1 0x1D SWAP1 PUSH1 0x20 PUSH1 0x64 SWAP5 MLOAD SWAP4 PUSH3 0x461BCD PUSH1 0xE5 SHL DUP6 MSTORE DUP5 ADD MSTORE DUP3 ADD MSTORE PUSH32 0x496E76616C696420636F6E7472696275746F7227732061646472657373000000 PUSH1 0x44 DUP3 ADD MSTORE REVERT JUMPDEST PUSH1 0x17 SWAP1 PUSH1 0x20 PUSH1 0x64 SWAP5 MLOAD SWAP4 PUSH3 0x461BCD PUSH1 0xE5 SHL DUP6 MSTORE DUP5 ADD MSTORE DUP3 ADD MSTORE PUSH23 0x125B9CDD59999A58DA595B9D08115D1A08185B5BDD5B9D PUSH1 0x4A SHL PUSH1 0x44 DUP3 ADD MSTORE REVERT JUMPDEST PUSH1 0xE SWAP1 PUSH1 0x20 PUSH1 0x64 SWAP5 MLOAD SWAP4 PUSH3 0x461BCD PUSH1 0xE5 SHL DUP6 MSTORE DUP5 ADD MSTORE DUP3 ADD MSTORE PUSH14 0x125B9D985B1A5908185B5BDD5B9D PUSH1 0x92 SHL PUSH1 0x44 DUP3 ADD MSTORE REVERT JUMPDEST PUSH1 0xC SWAP1 PUSH1 0x20 PUSH1 0x64 SWAP5 MLOAD SWAP4 PUSH3 0x461BCD PUSH1 0xE5 SHL DUP6 MSTORE DUP5 ADD MSTORE DUP3 ADD MSTORE PUSH12 0x1250D3C81A5CC8195B991959 PUSH1 0xA2 SHL PUSH1 0x44 DUP3 ADD MSTORE REVERT JUMPDEST PUSH1 0x1D SWAP1 PUSH1 0x20 PUSH1 0x64 SWAP5 MLOAD SWAP4 PUSH3 0x461BCD PUSH1 0xE5 SHL DUP6 MSTORE DUP5 ADD MSTORE DUP3 ADD MSTORE PUSH32 0x496E73756666696369656E7420746F6B656E7320617661696C61626C65000000 PUSH1 0x44 DUP3 ADD MSTORE REVERT JUMPDEST DUP5 MLOAD PUSH3 0x461BCD PUSH1 0xE5 SHL DUP2 MSTORE PUSH1 0x20 DUP2 DUP7 ADD MSTORE PUSH1 0x29 DUP2 DUP6 ADD MSTORE PUSH32 0x546F6B656E732073686F756C6420626520636861726765642066756C6C792062 PUSH1 0x44 DUP3 ADD MSTORE PUSH9 0x65666F72652049434F PUSH1 0xB8 SHL PUSH1 0x64 DUP3 ADD MSTORE PUSH1 0x84 SWAP1 REVERT JUMPDEST DUP7 DUP1 REVERT JUMPDEST SWAP1 POP CALLVALUE PUSH2 0x3D4 JUMPI PUSH1 0x20 CALLDATASIZE PUSH1 0x3 NOT ADD SLT PUSH2 0x3D4 JUMPI CALLDATALOAD SWAP2 PUSH1 0xD SLOAD DUP4 LT ISZERO PUSH2 0x4AC JUMPI POP PUSH2 0xBE3 PUSH1 0x20 SWAP3 PUSH2 0x12CC JUMP JUMPDEST DUP3 DUP5 CALLVALUE PUSH2 0x4AC JUMPI PUSH1 0x20 CALLDATASIZE PUSH1 0x3 NOT ADD SLT PUSH2 0x4AC JUMPI POP PUSH2 0x587 PUSH1 0x20 SWAP3 PUSH1 0x13 SLOAD SWAP1 CALLDATALOAD PUSH2 0x1447 JUMP JUMPDEST POP POP CALLVALUE PUSH2 0x1ED JUMPI DUP2 PUSH1 0x3 NOT CALLDATASIZE ADD SLT PUSH2 0x1ED JUMPI PUSH1 0x20 SWAP1 PUSH1 0x7 SLOAD SWAP1 MLOAD SWAP1 DUP2 MSTORE RETURN JUMPDEST DUP4 DUP4 CALLVALUE PUSH2 0x1ED JUMPI DUP2 PUSH1 0x3 NOT CALLDATASIZE ADD SLT PUSH2 0x1ED JUMPI PUSH1 0x7 SLOAD TIMESTAMP LT ISZERO PUSH2 0x115C JUMPI DUP2 SWAP1 JUMPDEST MLOAD SWAP2 DUP4 DUP3 LT ISZERO PUSH2 0x1149 JUMPI PUSH1 0x20 DUP4 DUP4 DUP2 MSTORE RETURN JUMPDEST PUSH4 0x4E487B71 PUSH1 0xE0 SHL DUP2 MSTORE PUSH1 0x21 DUP5 MSTORE PUSH1 0x24 SWAP1 REVERT JUMPDEST PUSH1 0xA SLOAD PUSH1 0x9 SLOAD DUP2 LT PUSH2 0x1171 JUMPI POP PUSH1 0x3 SWAP1 PUSH2 0x1137 JUMP JUMPDEST PUSH1 0x8 SLOAD GT ISZERO PUSH2 0x1182 JUMPI PUSH1 0x1 SWAP1 PUSH2 0x1137 JUMP JUMPDEST PUSH1 0x2 SWAP1 PUSH2 0x1137 JUMP JUMPDEST POP POP CALLVALUE PUSH2 0x1ED JUMPI DUP2 PUSH1 0x3 NOT CALLDATASIZE ADD SLT PUSH2 0x1ED JUMPI PUSH1 0x1 SLOAD SWAP1 MLOAD PUSH1 0x1 PUSH1 0x1 PUSH1 0xA0 SHL SUB SWAP1 SWAP2 AND DUP2 MSTORE PUSH1 0x20 SWAP1 RETURN JUMPDEST SWAP1 POP CALLVALUE PUSH2 0x3D4 JUMPI DUP3 PUSH1 0x3 NOT CALLDATASIZE ADD SLT PUSH2 0x3D4 JUMPI SLOAD SWAP1 MLOAD PUSH1 0x1 PUSH1 0x1 PUSH1 0xA0 SHL SUB SWAP1 SWAP2 AND DUP2 MSTORE PUSH1 0x20 SWAP2 POP RETURN JUMPDEST POP POP CALLVALUE PUSH2 0x1ED JUMPI PUSH1 0x20 CALLDATASIZE PUSH1 0x3 NOT ADD SLT PUSH2 0x1ED JUMPI PUSH1 0x20 SWAP2 PUSH2 0x587 SWAP1 PUSH2 0xB33 SWAP1 DUP4 SWAP1 PUSH1 0x1 PUSH1 0x1 PUSH1 0xA0 SHL SUB PUSH2 0x120B PUSH2 0x128E JUMP JUMPDEST AND DUP2 MSTORE PUSH1 0xE DUP7 MSTORE KECCAK256 SLOAD PUSH2 0xA8E PUSH1 0x12 SLOAD PUSH2 0x1439 JUMP JUMPDEST POP POP CALLVALUE PUSH2 0x1ED JUMPI DUP2 PUSH1 0x3 NOT CALLDATASIZE ADD SLT PUSH2 0x1ED JUMPI PUSH1 0x20 SWAP1 PUSH2 0x587 PUSH1 0x9 SLOAD PUSH1 0x13 SLOAD SWAP1 PUSH2 0x1447 JUMP JUMPDEST POP POP CALLVALUE PUSH2 0x1ED JUMPI DUP2 PUSH1 0x3 NOT CALLDATASIZE ADD SLT PUSH2 0x1ED JUMPI PUSH1 0x20 SWAP1 PUSH2 0x1260 PUSH2 0x1467 JUMP JUMPDEST SWAP1 MLOAD SWAP1 ISZERO ISZERO DUP2 MSTORE RETURN JUMPDEST DUP5 SWAP1 CALLVALUE PUSH2 0x1ED JUMPI DUP2 PUSH1 0x3 NOT CALLDATASIZE ADD SLT PUSH2 0x1ED JUMPI PUSH1 0x3 SLOAD PUSH1 0x1 PUSH1 0x1 PUSH1 0xA0 SHL SUB AND DUP2 MSTORE PUSH1 0x20 SWAP1 RETURN JUMPDEST PUSH1 0x4 CALLDATALOAD SWAP1 PUSH1 0x1 PUSH1 0x1 PUSH1 0xA0 SHL SUB DUP3 AND DUP3 SUB PUSH2 0x12A4 JUMPI JUMP JUMPDEST PUSH1 0x0 DUP1 REVERT JUMPDEST CALLVALUE PUSH2 0x12A4 JUMPI PUSH1 0x0 CALLDATASIZE PUSH1 0x3 NOT ADD SLT PUSH2 0x12A4 JUMPI PUSH1 0x20 PUSH2 0x12C4 PUSH2 0x148F JUMP JUMPDEST PUSH1 0x40 MLOAD SWAP1 DUP2 MSTORE RETURN JUMPDEST PUSH1 0xD SLOAD DUP2 LT ISZERO PUSH2 0x12E7 JUMPI PUSH1 0xD PUSH1 0x0 MSTORE PUSH1 0x20 PUSH1 0x0 KECCAK256 ADD SWAP1 PUSH1 0x0 SWAP1 JUMP JUMPDEST PUSH4 0x4E487B71 PUSH1 0xE0 SHL PUSH1 0x0 MSTORE PUSH1 0x32 PUSH1 0x4 MSTORE PUSH1 0x24 PUSH1 0x0 REVERT JUMPDEST PUSH1 0xC SLOAD DUP2 LT ISZERO PUSH2 0x12E7 JUMPI PUSH1 0xC PUSH1 0x0 MSTORE PUSH1 0x20 PUSH1 0x0 KECCAK256 ADD SWAP1 PUSH1 0x0 SWAP1 JUMP JUMPDEST PUSH1 0x80 DUP2 ADD SWAP1 DUP2 LT PUSH8 0xFFFFFFFFFFFFFFFF DUP3 GT OR PUSH2 0x1334 JUMPI PUSH1 0x40 MSTORE JUMP JUMPDEST PUSH4 0x4E487B71 PUSH1 0xE0 SHL PUSH1 0x0 MSTORE PUSH1 0x41 PUSH1 0x4 MSTORE PUSH1 0x24 PUSH1 0x0 REVERT JUMPDEST SWAP1 PUSH1 0x1F DUP1 NOT SWAP2 ADD AND DUP2 ADD SWAP1 DUP2 LT PUSH8 0xFFFFFFFFFFFFFFFF DUP3 GT OR PUSH2 0x1334 JUMPI PUSH1 0x40 MSTORE JUMP JUMPDEST SWAP2 SWAP1 DUP3 MLOAD SWAP3 DUP4 DUP3 MSTORE PUSH1 0x0 JUMPDEST DUP5 DUP2 LT PUSH2 0x1398 JUMPI POP POP DUP3 PUSH1 0x0 PUSH1 0x20 DUP1 SWAP5 SWAP6 DUP5 ADD ADD MSTORE PUSH1 0x1F DUP1 NOT SWAP2 ADD AND ADD ADD SWAP1 JUMP JUMPDEST PUSH1 0x20 DUP2 DUP4 ADD DUP2 ADD MLOAD DUP5 DUP4 ADD DUP3 ADD MSTORE ADD PUSH2 0x1377 JUMP JUMPDEST PUSH1 0x1A SLOAD DUP2 LT ISZERO PUSH2 0x12E7 JUMPI PUSH1 0x1A PUSH1 0x0 MSTORE PUSH1 0x20 PUSH1 0x0 KECCAK256 SWAP1 PUSH1 0x2 SHL ADD SWAP1 PUSH1 0x0 SWAP1 JUMP JUMPDEST PUSH1 0x20 SWAP1 PUSH1 0x20 PUSH1 0x40 DUP2 DUP4 ADD SWAP3 DUP3 DUP2 MSTORE DUP6 MLOAD DUP1 SWAP5 MSTORE ADD SWAP4 ADD SWAP2 PUSH1 0x0 JUMPDEST DUP3 DUP2 LT PUSH2 0x13F3 JUMPI POP POP POP POP SWAP1 JUMP JUMPDEST DUP4 MLOAD PUSH1 0x1 PUSH1 0x1 PUSH1 0xA0 SHL SUB AND DUP6 MSTORE SWAP4 DUP2 ADD SWAP4 SWAP3 DUP2 ADD SWAP3 PUSH1 0x1 ADD PUSH2 0x13E5 JUMP JUMPDEST DUP2 DUP2 MUL SWAP3 SWAP2 DUP2 ISZERO SWAP2 DUP5 DIV EQ OR ISZERO PUSH2 0x1423 JUMPI JUMP JUMPDEST PUSH4 0x4E487B71 PUSH1 0xE0 SHL PUSH1 0x0 MSTORE PUSH1 0x11 PUSH1 0x4 MSTORE PUSH1 0x24 PUSH1 0x0 REVERT JUMPDEST PUSH1 0x4D DUP2 GT PUSH2 0x1423 JUMPI PUSH1 0xA EXP SWAP1 JUMP JUMPDEST DUP2 ISZERO PUSH2 0x1451 JUMPI DIV SWAP1 JUMP JUMPDEST PUSH4 0x4E487B71 PUSH1 0xE0 SHL PUSH1 0x0 MSTORE PUSH1 0x12 PUSH1 0x4 MSTORE PUSH1 0x24 PUSH1 0x0 REVERT JUMPDEST PUSH2 0x147D PUSH2 0x576 PUSH2 0x1475 PUSH2 0x148F JUMP JUMPDEST PUSH1 0x13 SLOAD PUSH2 0x1410 JUMP JUMPDEST PUSH1 0x9 SLOAD GT PUSH2 0x148A JUMPI PUSH1 0x1 SWAP1 JUMP JUMPDEST PUSH1 0x0 SWAP1 JUMP JUMPDEST PUSH1 0x40 MLOAD PUSH4 0x70A08231 PUSH1 0xE0 SHL DUP2 MSTORE ADDRESS PUSH1 0x4 DUP3 ADD MSTORE PUSH1 0x20 DUP2 PUSH1 0x24 DUP2 PUSH32 0x0 PUSH1 0x1 PUSH1 0x1 PUSH1 0xA0 SHL SUB AND GAS STATICCALL SWAP1 DUP2 ISZERO PUSH2 0x1515 JUMPI PUSH1 0x0 SWAP2 PUSH2 0x14E6 JUMPI POP SWAP1 JUMP JUMPDEST SWAP1 POP PUSH1 0x20 DUP2 RETURNDATASIZE PUSH1 0x20 GT PUSH2 0x150D JUMPI JUMPDEST DUP2 PUSH2 0x1501 PUSH1 0x20 SWAP4 DUP4 PUSH2 0x134A JUMP JUMPDEST DUP2 ADD SUB SLT PUSH2 0x12A4 JUMPI MLOAD SWAP1 JUMP JUMPDEST RETURNDATASIZE SWAP2 POP PUSH2 0x14F4 JUMP JUMPDEST PUSH1 0x40 MLOAD RETURNDATASIZE PUSH1 0x0 DUP3 RETURNDATACOPY RETURNDATASIZE SWAP1 REVERT JUMPDEST SWAP2 SWAP1 DUP3 ADD DUP1 SWAP3 GT PUSH2 0x1423 JUMPI JUMP JUMPDEST PUSH1 0x2 PUSH1 0x0 SLOAD EQ PUSH2 0x153F JUMPI PUSH1 0x2 PUSH1 0x0 SSTORE JUMP JUMPDEST PUSH1 0x40 MLOAD PUSH4 0x3EE5AEB5 PUSH1 0xE0 SHL DUP2 MSTORE PUSH1 0x4 SWAP1 REVERT JUMPDEST RETURNDATASIZE ISZERO PUSH2 0x158C JUMPI RETURNDATASIZE SWAP1 PUSH8 0xFFFFFFFFFFFFFFFF DUP3 GT PUSH2 0x1334 JUMPI PUSH1 0x40 MLOAD SWAP2 PUSH2 0x1580 PUSH1 0x1F DUP3 ADD PUSH1 0x1F NOT AND PUSH1 0x20 ADD DUP5 PUSH2 0x134A JUMP JUMPDEST DUP3 MSTORE RETURNDATASIZE PUSH1 0x0 PUSH1 0x20 DUP5 ADD RETURNDATACOPY JUMP JUMPDEST PUSH1 0x60 SWAP1 JUMP JUMPDEST PUSH1 0xA SLOAD SWAP1 PUSH1 0x19 DUP3 MUL SWAP2 DUP1 ISZERO SWAP3 DUP2 DUP2 DIV PUSH1 0x19 EQ DUP5 OR ISZERO PUSH2 0x1423 JUMPI PUSH2 0x3E8 DUP1 SWAP2 DIV SWAP4 PUSH1 0x0 SWAP5 PUSH1 0x1 DUP1 PUSH1 0xA0 SHL SUB SWAP6 PUSH1 0x4 DUP2 DUP1 DUP1 DUP1 DUP7 DUP13 DUP7 SLOAD AND GAS CALL PUSH2 0x15D1 PUSH2 0x1551 JUMP JUMPDEST POP ISZERO PUSH2 0x18CE JUMPI PUSH1 0xA DUP7 MUL DUP7 DUP2 DIV PUSH1 0xA EQ DUP6 OR ISZERO PUSH2 0x1869 JUMPI SWAP1 DUP6 DUP10 SWAP4 SWAP3 DIV SWAP5 DUP3 DUP1 DUP1 DUP1 DUP10 PUSH1 0x1 SWAP15 DUP16 SLOAD AND GAS CALL PUSH2 0x1604 PUSH2 0x1551 JUMP JUMPDEST POP ISZERO PUSH2 0x187C JUMPI PUSH1 0x5F DUP9 MUL SWAP1 DUP9 DUP3 DIV PUSH1 0x5F EQ OR ISZERO PUSH2 0x1869 JUMPI PUSH1 0x64 DUP1 SWAP2 DIV SWAP7 DUP4 DUP1 DUP1 DUP1 DUP12 DUP10 PUSH1 0x5 SLOAD AND GAS CALL PUSH2 0x1635 PUSH2 0x1551 JUMP JUMPDEST POP ISZERO PUSH2 0x1825 JUMPI DUP11 SWAP4 SWAP3 SWAP2 SWAP1 DUP4 DUP6 JUMPDEST PUSH2 0x1747 JUMPI JUMPDEST POP POP POP POP DUP1 PUSH32 0x0 SWAP3 JUMPDEST PUSH2 0x16F0 JUMPI JUMPDEST POP POP POP POP SWAP1 PUSH1 0xE0 SWAP4 SWAP3 SWAP2 PUSH32 0x8685F6684F1A26E02F6D97F68AB629B105865A82A09EFB8D0A47293918EDD3A8 SWAP6 SWAP7 PUSH1 0x16 SLOAD PUSH2 0x100 PUSH1 0x1 PUSH1 0xA8 SHL SUB CALLER PUSH1 0x8 SHL AND SWAP1 PUSH1 0x1 DUP1 PUSH1 0xA8 SHL SUB NOT AND OR OR PUSH1 0x16 SSTORE TIMESTAMP PUSH1 0x17 SSTORE PUSH1 0x40 MLOAD SWAP4 ADDRESS DUP6 MSTORE CALLER PUSH1 0x20 DUP7 ADD MSTORE PUSH1 0x40 DUP6 ADD MSTORE PUSH1 0x60 DUP5 ADD MSTORE PUSH1 0x80 DUP4 ADD MSTORE PUSH1 0xA0 DUP3 ADD MSTORE TIMESTAMP PUSH1 0xC0 DUP3 ADD MSTORE LOG1 JUMP JUMPDEST PUSH1 0xC SLOAD DUP2 LT ISZERO PUSH2 0x1742 JUMPI SWAP1 DUP10 DUP3 PUSH2 0x1739 DUP7 PUSH2 0x170C DUP5 SWAP8 SWAP7 PUSH2 0x12FD JUMP JUMPDEST SWAP1 SLOAD SWAP1 PUSH1 0x3 SHL SHR AND DUP1 DUP6 MSTORE PUSH1 0xE PUSH1 0x20 MSTORE PUSH2 0x1732 PUSH2 0xB33 PUSH1 0x40 DUP8 KECCAK256 SLOAD PUSH2 0xA8E PUSH1 0x12 SLOAD PUSH2 0x1439 JUMP JUMPDEST SWAP1 DUP7 PUSH2 0x190C JUMP JUMPDEST ADD SWAP1 SWAP2 SWAP3 PUSH2 0x1670 JUMP JUMPDEST PUSH2 0x1675 JUMP JUMPDEST SWAP1 SWAP2 SWAP3 SWAP4 SWAP5 POP PUSH1 0xD SLOAD DUP2 LT ISZERO PUSH2 0x181D JUMPI DUP6 PUSH2 0x1761 DUP3 PUSH2 0x12CC JUMP JUMPDEST SWAP1 SLOAD SWAP1 PUSH1 0x3 SHL SHR AND DUP1 DUP7 MSTORE PUSH1 0xF PUSH1 0x20 SWAP2 DUP2 DUP4 MSTORE PUSH1 0x40 SWAP2 DUP3 DUP10 KECCAK256 SLOAD DUP2 DUP2 MUL SWAP2 DUP2 DUP4 DIV EQ SWAP1 ISZERO OR ISZERO PUSH2 0x180A JUMPI DUP9 DUP1 DUP1 SWAP4 DUP9 DUP3 SWAP5 DIV SWAP1 GAS CALL PUSH2 0x179E PUSH2 0x1551 JUMP JUMPDEST POP ISZERO PUSH2 0x17B5 JUMPI POP POP SWAP1 DUP12 DUP1 SWAP5 SWAP4 SWAP3 ADD DUP5 SWAP6 SWAP5 PUSH2 0x1643 JUMP JUMPDEST MLOAD PUSH3 0x461BCD PUSH1 0xE5 SHL DUP2 MSTORE DUP1 DUP7 ADD SWAP2 SWAP1 SWAP2 MSTORE PUSH1 0x2A PUSH1 0x24 DUP3 ADD MSTORE PUSH32 0x4661696C656420746F2073656E6420636F6E747269627574696F6E2070617274 PUSH1 0x44 DUP3 ADD MSTORE PUSH10 0x3732B913B9903332B297 PUSH1 0xB1 SHL DUP2 DUP6 ADD MSTORE PUSH1 0x84 SWAP1 REVERT JUMPDEST PUSH4 0x4E487B71 PUSH1 0xE0 SHL DUP10 MSTORE PUSH1 0x11 DUP9 MSTORE PUSH1 0x24 DUP10 REVERT JUMPDEST DUP12 SWAP5 SWAP4 PUSH2 0x1648 JUMP JUMPDEST PUSH1 0x40 MLOAD PUSH3 0x461BCD PUSH1 0xE5 SHL DUP2 MSTORE PUSH1 0x20 DUP2 DUP6 ADD MSTORE PUSH1 0x1F PUSH1 0x24 DUP3 ADD MSTORE PUSH32 0x4661696C656420746F2073656E642063726561746F7227732066756E64732E00 PUSH1 0x44 DUP3 ADD MSTORE PUSH1 0x64 SWAP1 REVERT JUMPDEST PUSH4 0x4E487B71 PUSH1 0xE0 SHL DUP4 MSTORE PUSH1 0x11 DUP3 MSTORE PUSH1 0x24 DUP4 REVERT JUMPDEST PUSH1 0x40 MLOAD PUSH3 0x461BCD PUSH1 0xE5 SHL DUP2 MSTORE PUSH1 0x20 DUP2 DUP5 ADD MSTORE PUSH1 0x25 PUSH1 0x24 DUP3 ADD MSTORE PUSH32 0x4661696C656420746F2073656E64206C697374696E6720706172746E65722773 PUSH1 0x44 DUP3 ADD MSTORE PUSH5 0x103332B297 PUSH1 0xD9 SHL PUSH1 0x64 DUP3 ADD MSTORE PUSH1 0x84 SWAP1 REVERT JUMPDEST PUSH1 0x64 SWAP1 PUSH1 0x20 PUSH1 0x40 MLOAD SWAP2 PUSH3 0x461BCD PUSH1 0xE5 SHL DUP4 MSTORE DUP3 ADD MSTORE PUSH1 0x17 PUSH1 0x24 DUP3 ADD MSTORE PUSH23 0x2330B4B632B2103A379039B2B732102220A7903332B297 PUSH1 0x49 SHL PUSH1 0x44 DUP3 ADD MSTORE REVERT JUMPDEST PUSH1 0x40 MLOAD PUSH4 0xA9059CBB PUSH1 0xE0 SHL PUSH1 0x20 DUP3 ADD SWAP1 DUP2 MSTORE PUSH1 0x1 PUSH1 0x1 PUSH1 0xA0 SHL SUB SWAP4 DUP5 AND PUSH1 0x24 DUP4 ADD MSTORE PUSH1 0x44 DUP1 DUP4 ADD SWAP6 SWAP1 SWAP6 MSTORE SWAP4 DUP2 MSTORE SWAP3 SWAP2 PUSH2 0x1966 SWAP2 PUSH2 0x1949 DUP6 PUSH2 0x1318 JUMP JUMPDEST AND SWAP3 PUSH1 0x0 DUP1 SWAP4 DUP2 SWAP3 MLOAD SWAP1 DUP3 DUP8 GAS CALL PUSH2 0x195F PUSH2 0x1551 JUMP JUMPDEST SWAP1 DUP5 PUSH2 0x19BE JUMP JUMPDEST SWAP1 DUP2 MLOAD SWAP2 DUP3 ISZERO ISZERO SWAP3 DUP4 PUSH2 0x1996 JUMPI JUMPDEST POP POP POP PUSH2 0x197E JUMPI POP JUMP JUMPDEST PUSH1 0x24 SWAP1 PUSH1 0x40 MLOAD SWAP1 PUSH4 0x5274AFE7 PUSH1 0xE0 SHL DUP3 MSTORE PUSH1 0x4 DUP3 ADD MSTORE REVERT JUMPDEST DUP2 SWAP3 SWAP4 POP SWAP1 PUSH1 0x20 SWAP2 DUP2 ADD SUB SLT PUSH2 0x1ED JUMPI PUSH1 0x20 ADD MLOAD SWAP1 DUP2 ISZERO SWAP2 DUP3 ISZERO SUB PUSH2 0x4AC JUMPI POP CODESIZE DUP1 DUP1 PUSH2 0x1974 JUMP JUMPDEST SWAP1 PUSH2 0x19E5 JUMPI POP DUP1 MLOAD ISZERO PUSH2 0x19D3 JUMPI DUP1 MLOAD SWAP1 PUSH1 0x20 ADD REVERT JUMPDEST PUSH1 0x40 MLOAD PUSH4 0xA12F521 PUSH1 0xE1 SHL DUP2 MSTORE PUSH1 0x4 SWAP1 REVERT JUMPDEST DUP2 MLOAD ISZERO DUP1 PUSH2 0x1A18 JUMPI JUMPDEST PUSH2 0x19F6 JUMPI POP SWAP1 JUMP JUMPDEST PUSH1 0x40 MLOAD PUSH4 0x9996B315 PUSH1 0xE0 SHL DUP2 MSTORE PUSH1 0x1 PUSH1 0x1 PUSH1 0xA0 SHL SUB SWAP1 SWAP2 AND PUSH1 0x4 DUP3 ADD MSTORE PUSH1 0x24 SWAP1 REVERT JUMPDEST POP DUP1 EXTCODESIZE ISZERO PUSH2 0x19EE JUMP INVALID LOG2 PUSH5 0x6970667358 0x22 SLT KECCAK256 0xF SELFBALANCE 0xB1 0xD2 0xED ORIGIN SELFBALANCE 0xB7 0xC9 PUSH12 0xAD1E8FD94D02F181394FABF3 CODESIZE TLOAD 0xC1 EXTCODESIZE SDIV EXTCODEHASH SWAP2 SWAP2 LOG3 GAS PUSH5 0x736F6C6343 STOP ADDMOD XOR STOP CALLER BALANCE 0xEC 0xC2 BYTE PUSH21 0x5E3968A04E9570E4425BC18FA8019C68028196B546 0xD1 PUSH7 0x9C200C68486172 PUSH5 0x6361702073 PUSH9 0x6F756C642073657420 PUSH8 0x7265617465722074 PUSH9 0x616E201B6847DC741A SHL 0xC 0xD0 DUP14 0x27 DUP9 GASLIMIT 0xF9 0xD8 NOT 0xD8 PUSH28 0x734759AFB55FE2DE5CB82A9AE6720000000000000000000000000000 "},"methodIdentifiers":{"contributions(address)":"42e94c90","contributors(uint256)":"3cb5d100","creator()":"02d05d3f","daoAddress()":"2131c68c","distribution()":"5ee58efc","endTime()":"3197cbb6","ethdByTokens(uint256)":"ac6d7b66","finish()":"d56b2889","fundRaisedAddress()":"fd572337","fundsRaised()":"6681b9fd","getContributorAmount(address)":"2e518464","getContributors()":"af157c19","getHistory()":"aa15efc8","getICOState()":"2e659d93","getInvestAmount(address)":"f8b28422","getInvestors()":"b2f5a54c","getTokenAmountForInvestor(address)":"1909d0d5","hardcap()":"b071cbe6","history(uint256)":"a7a38f0b","invest(uint256,address)":"3d103b97","investments(address)":"96b98862","investors(uint256)":"3feb5f2b","lister()":"2cdc1c74","maxTokenAmountToPurchase()":"35aa0bef","minEthAvailable()":"69a72a6e","owner()":"8da5cb5b","projectURI()":"6e6fb49f","refund()":"590e1ae3","silverToken()":"c34fe1dd","softcap()":"f89be593","startTime()":"78e97925","tokenInfo()":"6addb663","tokensAvailable()":"60659a92","tokensAvailableByEth(uint256)":"3c3610aa","tokensByEth(uint256)":"5bed7ef7","tokensFullyCharged()":"1069789b","totalCap()":"16450092"}}}}}